:10000000000C0010BD170000B7450000A917000044
:10001000A9170000A9170000A917000000000000A0
:100020000000000000000000000000007118000047
:10003000A9170000000000001D180000552A00004C
:10004000F5190000F5190000F5190000F519000078
:10005000F5190000F5190000F5190000F519000068
:10006000F5190000F5190000F5190000F519000058
:10007000F5190000F5190000F5190000F519000048
:1002980080F0004002E000BF81F0004142001FBF33
:1002A8005FEA410392EA030F7FEA226C7FEA236C3C
:1002B8006AD04FEA1262D2EB1363C1BFD218414031
:1002C80048404140B8BF5B42192B88BF704710F0C7
:1002D800004F40F4000020F07F4018BF404211F06A
:1002E800004F41F4000121F07F4118BF494292EAD2
:1002F800030F3FD0A2F1010241FA03FC10EB0C00FE
:10030800C3F1200301FA03F100F0004302D549428A
:1003180060EB4000B0F5000F13D3B0F1807F06D337
:1003280040084FEA310102F10102FE2A51D2B1F12F
:10033800004F40EBC25008BF20F0010040EA030024
:100348007047490040EB0000013A28BFB0F5000FA4
:10035800EDD2B0FA80FCACF1080CB2EB0C0200FA5A
:100368000CF0AABF00EBC25052421843BCBFD040A9
:100378001843704792F0000F81F4000106BF80F423
:1003880000000132013BB5E74FEA41037FEA226CE6
:1003980018BF7FEA236C21D092EA030F04D092F0B1
:1003A800000F08BF0846704790EA010F1CBF0020E5
:1003B800704712F07F4F04D1400028BF40F0004042
:1003C800704712F100723CBF00F50000704700F062
:1003D800004343F0FE4040F4000070477FEA226289
:1003E80016BF08467FEA23630146420206BF5FEA5A
:1003F800412390EA010F40F4800070474FF000035A
:1004080004E000BF10F0004348BF40425FEA000C20
:1004180008BF704743F0964301464FF000001CE0C8
:1004280050EA010208BF70474FF000030AE000BF1E
:1004380050EA010208BF704711F0004302D540425C
:1004480061EB41015FEA010C02BF844601460020CE
:1004580043F0B64308BFA3F18053A3F50003BCFAE9
:100468008CF2083AA3EBC25310DB01FA02FC634496
:1004780000FA02FCC2F12002BCF1004F20FA02F29D
:1004880043EB020008BF20F00100704702F1200290
:1004980001FA02FCC2F1200250EA4C0021FA02F2F1
:1004A80043EB020008BF20EADC7070474FF0FF0CF6
:1004B8001CEAD0521EBF1CEAD15392EA0C0F93EAF1
:1004C8000C0F6FD01A4480EA010C400218BF5FEA93
:1004D80041211ED04FF0006343EA501043EA511106
:1004E800A0FB01310CF00040B1F5000F3EBF490000
:1004F80041EAD3715B0040EA010062F17F02FD2A04
:100508001DD8B3F1004F40EBC25008BF20F00100E6
:10051800704790F0000F0CF0004C08BF49024CEAFD
:10052800502040EA51207F3AC2BFD2F1FF0340EA8F
:10053800C250704740F400004FF00003013A5DDC00
:1005480012F1190FDCBF00F000407047C2F1000241
:10055800410021FA02F1C2F1200200FA02FC5FEA2E
:10056800310040F1000053EA4C0308BF20EADC7078
:10057800704792F0000F00F0004C02BF400010F4EA
:10058800000F013AF9D040EA0C0093F0000F01F097
:10059800004C02BF490011F4000F013BF9D041EAB9
:1005A8000C018FE70CEAD15392EA0C0F18BF93EABB
:1005B8000C0F0AD030F0004C18BF31F0004CD8D1E5
:1005C80080EA010000F00040704790F0000F17BF6C
:1005D80090F0004F084691F0000F91F0004F14D0B2
:1005E80092EA0C0F01D142020FD193EA0C0F03D10A
:1005F8004B0218BF084608D180EA010000F000400D
:1006080040F0FE4040F40000704740F0FE4040F4E7
:10061800400070474FF0FF0C1CEAD0521EBF1CEA86
:10062800D15392EA0C0F93EA0C0F69D0A2EB0302A4
:1006380080EA010C49024FEA402037D04FF080533E
:1006480043EA111143EA10130CF000408B4238BF03
:100658005B0042F17D024FF4000C8B4224BF5B1A11
:1006680040EA0C00B3EB510F24BFA3EB510340EA5F
:100678005C00B3EB910F24BFA3EB910340EA9C000D
:10068800B3EBD10F24BFA3EBD10340EADC001B017D
:1006980018BF5FEA1C1CE0D1FD2A3FF650AF8B4221
:1006A80040EBC25008BF20F0010070470CF0004C2E
:1006B8004CEA50207F32C2BFD2F1FF0340EAC25059
:1006C800704740F400004FF00003013A37E792F01A
:1006D800000F00F0004C02BF400010F4000F013A78
:1006E800F9D040EA0C0093F0000F01F0004C02BF73
:1006F800490011F4000F013BF9D041EA0C0195E7DC
:100708000CEAD15392EA0C0F08D142027FF47DAF74
:1007180093EA0C0F7FF470AF084676E793EA0C0F64
:1007280004D14B023FF44CAF08466EE730F0004C62
:1007380018BF31F0004CCAD130F000427FF45CAFF2
:1007480031F000437FF43CAF5FE700BF42000ED2B8
:10075800B2F1FE4F0BD34FF09E03B3EB126209D4F4
:100768004FEA002343F0004323FA02F070474FF0AA
:100778000000704712F1610F01D1420202D14FF01F
:10078800FF3070474FF00000704700BF53B94AB9B7
:10079800002908BF00281CBF4FF0FF314FF0FF3081
:1007A80000F074B9ADF1080C6DE904CE00F006F85C
:1007B800DDF804E0DDE9022304B070472DE9F047D5
:1007C800089E0D4604468846002B4DD18A42944621
:1007D80068D9B2FA82F252B101FA02F3C2F12001E9
:1007E80020FA01F10CFA02FC41EA030894404FEAAE
:1007F8001C45210CB8FBF5FE1FFA8CF705FB1E8380
:1008080041EA03430EFB07F199420BD91CEB0303A2
:100818000EF1FF3080F01E81994240F21B81AEF14B
:10082800020E63445B1AA4B2B3FBF5F005FB103368
:1008380044EA034400FB07F7A7420AD91CEB040467
:1008480000F1FF3380F00881A74240F2058164443B
:100858000238E41B40EA0E4000211EB1D4400023B8
:10086800C6E90043BDE8F0878B4208D9002E00F0A6
:10087800EE800021C6E900050846BDE8F087B3FA16
:1008880083F100294AD1AB4202D3824200F2F980B7
:10089800841A65EB030301209846002EE2D0C6E9CE
:1008A8000048DFE702B9FFDEB2FA82F2002A40F020
:1008B8009180A1EB0C054FEA1C471FFA8CFE012121
:1008C800B5FBF7F307FB1350250C45EA00450EFB73
:1008D80003F0A84208D91CEB050503F1FF3802D242
:1008E800A84200F2CB8043462D1AA4B2B5FBF7F01C
:1008F80007FB105544EA05440EFB00FEA64508D93F
:100908001CEB040400F1FF3502D2A64500F2BB80BF
:100918002846A4EB0E0440EA03409EE7C1F12007F5
:100928008B4022FA07FC4CEA030C20FA07F405FA7C
:1009380001F31C43FD404FEA1C4900FA01F3B5FBE3
:10094800F9F8200C1FFA8CFE09FB185540EA0545FA
:1009580008FB0EF0A84202FA01F20BD91CEB0505C0
:1009680008F1FF3A80F08880A84240F28580A8F11B
:10097800020865442D1AA4B2B5FBF9F009FB10551D
:1009880044EA054500FB0EFEAE4508D91CEB0505FB
:1009980000F1FF346CD2AE456AD90238654440EAAA
:1009A8000840A0FB0294A5EB0E05A542C846A64642
:1009B80056D353D05EB1B3EB080265EB0E0505FACA
:1009C80007F722FA01F3CD401F43C6E9007500215D
:1009D800BDE8F087C2F1200320FA03F10CFA02FC0B
:1009E80025FA03F395400D434FEA1C471FFA8CFE86
:1009F800B3FBF7F107FB11302B0C43EA004301FB73
:100A08000EF0984204FA02F408D91CEB030301F132
:100A1800FF382FD298422DD9023963441B1AADB240
:100A2800B3FBF7F007FB103345EA034500FB0EF371
:100A3800AB4208D91CEB050500F1FF3816D2AB42D2
:100A480014D902386544ED1A40EA014138E73146C5
:100A5800304607E78646E5E61846FAE64B45A9D24A
:100A6800B9EB020864EB0C0E0138A3E74046EAE74D
:100A7800204694E74146D1E7D0467BE7023B6544F0
:100A880032E7084609E76444023842E7704700BF86
:100A9800F8B5174D284604F00FFC044630B32A6910
:100AA800A968136823F0800313600B684FF42022B1
:100AB800072128469847002818DB0E4F0E4EAB68D2
:100AC80080215B692846984700280FDB84F00104E1
:100AD80014F0FF0414BF39463146084801F006F9FE
:100AE800002142F2107004F065FCE8E70020F8BD30
:100AF800FC550000965E0000995E00009D5E0000B7
:100B0800014B1B68184700BF00000010014B18601C
:100B1800704700BF0000001007B50B4600210246D1
:100B28000091034800F006F803B05DF804FB00BF2D
:100B3800090B00002DE9F04F91B08B4602909146C9
:100B48001C46002599F8000008B928466DE32528B9
:100B58000AD0029B594698470028C0F2668301359F
:100B680009F1010AD146EDE7182200210AA803F08D
:100B780062FD99F80130252B7AD0002209F1010095
:100B88001646964694461746014610F8013B2B2B0D
:100B980000F09C8000F29380202B00F09A80232B99
:100BA80000F09A802FB19DF8300040F004008DF8D5
:100BB8003000BCF1000F05D09DF8300040F008006F
:100BC8008DF83000BEF1000F05D09DF8300040F0E0
:100BD80010008DF830002EB19DF8300040F0200054
:100BE8008DF830002AB19DF8302042F040028DF88F
:100BF80030209DF8302002F04400442803D16FF3E0
:100C080086128DF830209DF830202A2B42F0800281
:100C18008DF830207AD19DF8312042F001024B1C2A
:100C28008DF831201A782E2A9DF831200CBF012129
:100C3800002161F341028DF8312073D15A782A2AB4
:100C480069D0013300210A26184610F8012BA2F1B9
:100C58003007092F40F28D809DF830200E91C2F3A5
:100C6800400040EAD17161F341028DF8302059E02B
:100C78008DF8333009F1020A9DF83130D90740F177
:100C88004A8154F8048BB8F1000F07DA9DF8302038
:100C980042F004028DF83020C8F100085A0740F1EC
:100CA800438154F8047B002F80F242819DF8313053
:100CB8006FF341038DF831304FF0FF3738E12D2BBA
:100CC8000CD0302B7FF46EAF01225DE74FF0010CA2
:100CD8005AE74FF0010E57E7012655E7012753E77A
:100CE8000CFB0202303A33461E4616F8010BA0F1FF
:100CF8003007092FF4D9994294D09DF830100D92FD
:100D0800D20F62F341018DF830108BE70B460022B9
:100D18004FF00A0CE8E79DF8312042F004028DF804
:100D2800312002339A461AF8012B6C2A42D025D872
:100D3800682A2BD06A2A47D04C2A4DD09A461AF8EE
:100D4800012B9DF831308DF83320782A00F2DB80B2
:100D5800572A4ED8412A03D0453A022A00F2D380B6
:100D68009DF83230042262F302038DF832300123F9
:100D7800A0E006FB01213039034665E7742A27D035
:100D88007A2ADBD19DF8313006220EE05A78682A9B
:100D98009DF8312007D1012161F3C6028DF8312079
:100DA80003F1020ACBE71346022262F3C6038DF869
:100DB8003130C4E75A786C2A9DF8312001D10421DA
:100DC800EAE713460322F0E79DF831300522ECE705
:100DD8009DF831300722E8E7BDF8303023F4F043BE
:100DE80023F0020343F4804343F00203ADF83030AC
:100DF800A5E7A2F15801202900F2858001A050F84A
:100E080021F000BFD10E00000F0F00000F0F0000EF
:100E18000F0F00000F0F00000F0F00000F0F000052
:100E28000F0F00000F0F0000690D00000F0F0000EA
:100E3800D10E0000910E0000690D0000690D000040
:100E4800690D00000F0F0000910E00000F0F000049
:100E58000F0F00000F0F00000F0F0000D90E000049
:100E6800D10E0000F50E00000F0F00000F0F00005C
:100E7800F50E00000F0F0000D10E00000F0F00004C
:100E88000F0F0000D10E00009DF83210012003F072
:100E9800780360F30201402B8DF8321002BF9DF8F1
:100EA800301041F001018DF83010632A31D1003B38
:100EB80018BF01239DF83020C2F340010B4363F3B0
:100EC80041028DF83020D7E69DF832100220DEE787
:100ED8009DF8322003F07803A3F14000032161F369
:100EE800020243428DF832204341E3E79DF8322065
:100EF800032113F0780F61F302028DF8322014BF3A
:100F080001230023D6E79DF8303043F001038DF824
:100F180030300023CEE79DF93020002AB4BFDDF839
:100F280034804FF0FF38B9E69F077FF5C5AE0E9FB6
:100F38009DF831100023CDE90D339DF8323003F0D0
:100F48000703012BC1F3C30134D1CB1E042B21D8D5
:100F5800DFE803F003090920200054F8043BDA17FE
:100F6800CDE90A3206E0073424F00704F4E8022346
:100F7800CDE90A239DF8303013F0030658D00298C3
:100F880053464A46594603F0F7FA0028C0F24D8105
:100F98000544E7E554F8043B01294FEAE372CDE93B
:100FA8000A3202D19DF92830D9E70229E2D1BDF9E8
:100FB8002830D4E7022B29D1CB1E042B13D8DFE825
:100FC80003F0030A0A12120022680A920023201D65
:100FD8000B930446CEE7E01D20F00700F0E802235B
:100FE800CDE90A23F5E754F8043B0A9301294FF0A9
:100FF80000030B9305D19DF828300A9300230B9327
:10100800B8E70229B6D1BDF82830F6E7042B09D194
:10101800E31D23F0070303F10804D3E90023CDE916
:101028000A23A7E7032B04BF54F8043B0A93A1E75C
:101038009DF8330078283FF695AD62280FD825280B
:1010480040D058287FF48EAD0DF126030093DDE9DA
:101058000A0104AB0CAA03F049FA814665E063383B
:1010680015283FF67FAD01A252F820F05711000075
:10107800BB1100006D0B00006D0B00006D0B000034
:101088006D0B0000BB1100006D0B00006D0B000024
:101098006D0B00006D0B0000E7110000E31100006C
:1010A800031100006D0B00006D0B0000DD10000047
:1010B8006D0B0000E31100006D0B00006D0B0000CC
:1010C800E3110000029B594698470028C0F2AD8002
:1010D800013547E5002FDDF828900ADB39464846F8
:1010E80003F0B7FA09EB00070026B9F1000F36D173
:1010F80038E5484603F08DFAF4E70A98002800F02E
:1011080082800DF1260300930CAA04AB002103F0A2
:10111800EDF9BDF8323003F0EF0343F4F04343F048
:1011280010038146ADF832300026002F0DF126005D
:101138000BDB9DF83020A0EB09036FF386129F426A
:101148008DF8302001D9FB1A0D930746CDE70A9B8D
:101158008DF8103000260DF110090DF11107A7EBDD
:10116800090306B101339DF83220D00651D5023368
:1011780052060D9948BF0E9A0B4448BF9B18B8F108
:10118800000F5FDD9DF83020A8EB0308C2F3800351
:101198000393530756D450064AD546B1029B594685
:1011A80030469847002840DB039B01351E46302314
:1011B8003FE01E070FD413F0100618BF2026DDE904
:1011C8000A23002BBFF640AF524263EB4303CDE93D
:1011D8000A232D2638E72B26F1E7002634E70A9B59
:1011E80007293FF6BFACDFE801F00C04060C08083D
:1011F8000C0C1D70B6E41D80B4E4EA17C3E9005274
:10120800B0E41D60AEE4DFF8C890064609F10507B2
:10121800A5E7110748BF0133AAE7184603935946C3
:10122800029B98470028039B04DA11B0BDE8F08FB1
:10123800202345444246002AA5EB080108F1FF385F
:10124800EBDC0D4636B1029B5946304698470028DC
:10125800EBDB01359DF83230D90601D41A0706D5E3
:10126800029B5946302098470028DEDB01359DF85F
:101278003230DB0607D59DF83300029B5946984764
:101288000028D2DB01350D9E2E44731B002B16DC83
:1012980002983B464A46594603F06EF90028C4DBDB
:1012A8000544A844A8EB0503002B7FF75BAC029B21
:1012B8005946202098470028B7DB0135F2E7029B02
:1012C8005946302098470028AFDB0135DDE700BFDD
:1012D800AC5E0000034A536823F002035360002009
:1012E800704700BF001008504FF0A0434FF4006251
:1012F800C3F8A02AD3F8A03A82B013400193019B07
:10130800024A034B1A6002B0704700BF4016750CC2
:1013180038000010014B036000207047885C000013
:1013280038B505460C4699B1D1E901230F4809683B
:1013380003F0C5F8D4E90423E1680D4803F0BFF8C9
:10134800E1690C4803F0BBF8A1690B4803F0B7F852
:10135800012D05D1EFF305810848103903F0AFF8E6
:1013680021462846BDE8384002F0AEBAB25E000019
:10137800E25E0000125F0000225F0000515F000083
:1013880030BFFFF7FDBF00BF054B5A699B689A4203
:101398001FBF044A536843F080535360704700BF2F
:1013A800B003001000ED00E02DE9F843324D80460F
:1013B80032488946174603F082F8AB6ADE0622D522
:1013C8002F4803F07CF81124AB6A1D0703D52D487C
:1013D80003F075F81224284DAB6A980715D52A48EA
:1013E80003F06DF86E6BAB6A190642D52748314693
:1013F80003F065F8B9F1000F03D0AB6A23F080035E
:10140800AB62132403E01024DEE76FF015061A4DD3
:10141800AB6ADA0703D51E4803F051F81424AB6A07
:101428009B0603D51B4803F04AF81524124B9A6A09
:10143800D50602D49A6A90070AD55B68190507D5BC
:101448004146304600F090FA10B180F30988022432
:10145800094B9A6A920642BF5A6A22F400525A62AB
:101468009A6A42F0FF029A6200233B702046BDE868
:10147800F8836FF01506C4E700ED00E0655F000033
:101488007C5F0000B05F0000C45F0000DD5F00000B
:10149800F45F00001460000010B51D4C1D4803F0F7
:1014A8000EF8A36A990130D51B4803F008F81E20EE
:1014B800A36ADA0103D5194803F001F81F20144C78
:1014C800A36A1B0303D5164802F0F9FF2120A36A7B
:1014D800590303D5134802F0F2FF22200C4CA36AEB
:1014E8009A0303D5104802F0EAFF2320A36ADB031E
:1014F80003D50E4802F0E3FF2420054A936A6FEAF9
:1015080003436FEA1343936210BD1D20D0E700BF69
:1015180000ED00E0446000005D60000071600000C4
:101528008C600000AB600000D1600000EC6000003F
:1015380070B5254C064625480D4602F0C0FFA36A43
:10154800D9042DD5224802F0BAFF1720A36A1A053C
:1015580003D5204802F0B3FF18201B4CA36A9B0553
:1015680007D51D4802F0ABFFA16BA36A180419D474
:101578001920154CA36A590503D5184802F09FFF96
:101588001A20A36ADA0517D5154802F098FF1B2020
:101598000D4A936A43F47F43936200232B7070BD16
:1015A8001620D3E70F4802F08AFF002EE0D0A36A86
:1015B80023F40043A362DBE7A36A9B04E8D50A4847
:1015C80002F07DFF1C20E3E700ED00E01861000059
:1015D8002F610000B05F00004161000071610000F0
:1015E8008D6100005B610000146000002DE9F0418E
:1015F8005A4B5F688AB00D46C7F30804002686F385
:101608001188BFF36F8F02F07F43B3F17F4F06D18C
:1016180002F00C03082B04D1514802F050FF354664
:1016280003E0120701D4054601264FF00008E31E27
:101638008DF80780092B7FD8DFE803F005747871EF
:101648007E7E7E7E7E7C4748444F02F038FF8DF8D0
:101658000780FC6A14F0020404D0434802F02FFF0C
:10166800002405E0FB6A002B1CDA404802F027FF43
:101678009DF807309BB92022294602A802F0D0FF26
:10168800099B002E64D0C3F3080222B96FEA5323E2
:101698006FEA4323099302A92046FFF741FE0AB0E7
:1016A800BDE8F081FB6A5B00E2D5314802F007FF34
:1016B8007B69AA6943F480737B61BFF34F8FBFF3E3
:1016C8006F8F7B6932F8022C23F480737B61BFF340
:1016D8004F8FBFF36F8F4DF602739A420AD0BB6AE1
:1016E800DBB26BB10DF1070201212846FFF75CFE62
:1016F8000446BDE729681F4802F0E1FE2C68B7E7F9
:10170800BB6A13F47F4F05D00DF107010120FFF7E5
:101718000FFFEDE7BB6A1B0C1B04002BA8D0FFF7DB
:10172800BBFEE5E70DF107020021DEE70DF1070139
:101738000020ECE7104891E7104B1149114817F4C5
:10174800F87FA4F1100218BF194602F0B8FE87E727
:1017580023F4FF7323F001039CE700BF00ED00E0D2
:10176800D461000000620000186200003A620000C4
:10177800496200006962000086620000BB610000E7
:10178800A6610000AB620000044B5A6942F01002E7
:101798005A615A6922F008025A61704700ED00E068
:1017A800EFF30880EFF3098101B57246FFF71EFFDA
:1017B80001BD00BF0A4880F30888102080F3118813
:1017C80008484FF40461401880F30988EFF3148047
:1017D8000221084380F31488BFF36F8F00F08CF860
:1017E800000C0010C00D0010084B9B6883420BD101
:1017F800EFF3058343B1064B5A6842F080525A60B2
:101808005A6A22F400425A6202F0DABBB0030010AE
:1018180000ED00E012498A684FF030001044EFF301
:10182800098C80E8F01F102080F31288BFF36F8FB7
:101838000C4F4FF000664A698A603E60506F002383
:10184800536780F3118804B5104600F0EDF8BDE841
:10185800044002F1300090E8F01F8CF309887047CB
:10186800B003001004ED00E01EF0040F0CBFEFF30E
:101878000880EFF30980816911F8021C0229FFD062
:1018880001B5724602F08FFE01BD00BF03B2002B06
:1018980008DB012200F01F0002FA00F05B09024A8F
:1018A80042F82300704700BF00E100E003B2002BBC
:1018B800A8BF03F1604301F10101B8BF064B4FEA2D
:1018C8000111ACBF03F5614300F00F00C9B2B4BF0A
:1018D800195483F80013704714ED00E0044B054ACF
:1018E80023F07F039360BFF34F8FBFF36F8F704771
:1018F8000000000000ED00E008B5FFF7EFFF0B4A1D
:10190800D2F8883023F47003C2F88830EFF31483D8
:1019180023F0040383F31488BFF36F8F02F064F895
:1019280002F074FC00F056F802F0A2F800ED00E0B6
:1019380042F8203C009B42F81C3C0A49019B42F8B3
:10194800183C029B42F8143C21F001014FF08073CF
:1019580042F8043C42F8081C0023203A0265436719
:10196800704700BFE1440000094A0346906870B11F
:1019780013F1160F406E05D0A0F140029A4205D827
:10198800834203D2814228BF00207047002070475D
:10199800B003001008B50B4B98600E46154600F0D2
:1019A80043F82C4686F309880020044B98472046C4
:1019B800002100220023024C20470000D3450000EC
:1019C800E1440000B0030010014B10221A61704777
:1019D80000ED00E0044800231021C2180133962BC3
:1019E80082F80013F9D1704700E100E008B5EFF381
:1019F8000583064A103B02EBC30152F833004968DD
:101A08008847BDE80840FFF7BFBC00BF3C5700004F
:101A1800024B034A0348012100F078B80000051082
:101A280000000010885C0000426E054B403A1A60C6
:101A3800044A4021C3E901121846012100F070B898
:101A48003802001000000B15084AC2F898000B680D
:101A580023F01F03034343F01003C2F89C308B6844
:101A680043F00103C2F8A030704700BF00ED00E06A
:101A78002DE9F043DFF8648085B00E461F46044622
:101A88004FF00009B14503DB104605B0BDE8F0830F
:101A98006068F0B13FB1411E084213D11F2811D927
:101AA800236819420ED12368019302F0A2FDA368AE
:101AB80003430393D8F89050C5F30725D0B2013DEE
:101AC800A84202D96FF01502DEE701A9FFF7BCFFB3
:101AD800421C09F101090C34D4E700BF00ED00E015
:101AE800044B0522C3F89420BFF34F8FBFF36F8FC9
:101AF800704700BF00ED00E0BFF35F8F024B00228C
:101B0800C3F89420704700BF00ED00E010B5034C07
:101B180001232278FFF7ACFF207010BDDC03001012
:101B280008B50B4A00231278FFF7A2FF10F1160F31
:101B380007D0084A0021D2F89030C3F3072398420F
:101B480000DB08BDC2F89800C2F8A0100130F2E727
:101B5800DC03001000ED00E02DE9F043554B564C36
:101B6800D3F890302568C3F307239D4285B000F26F
:101B78009D80FFF7C1FF00200C2685421AD14F4CEB
:101B88004F4F25706846FFF7C5FBDFF82881DFF85F
:101B9800349106460025AE4213D1237845490020EA
:101BA800D1F89020C2F30722934279DBFFF798FF20
:101BB800002041E0616806FB0011FFF745FF013096
:101BC800DBE7009901EB05132801DA683A40B2F522
:101BD800000F4AD00AD8B2F5001F30D0B2F5800FF6
:101BE80037D0B2F5801F11D00135D4E7B2F1807F2C
:101BF80045D0B2F1007FF7D10A58986802F0F9FC95
:101C08005B6840F48020CDE901320AE00A58986800
:101C180002F0EFFC5B68CDE9013240F0885040F4F7
:101C280030200390D8F890302078C3F30723013B85
:101C380098422ED96FF0150005B0BDE8F0830A5818
:101C4800986802F0D6FC5B6840EA0900CDE90132E9
:101C5800E7E70A58986802F0CCFC5B6840F0C0607F
:101C6800CDE9013240F40030DBE70A58986802F009
:101C7800C0FC5B6840F08270CDE90132D1E70A58B8
:101C8800986802F0B6FC5B6840F08870CDE90132D4
:101C9800C7E701A9FFF7D8FE237801332370A3E72C
:101CA800C1F89830C1F8A000013379E74FF0FF3050
:101CB800C2E700BF00ED00E0945C0000DC03001008
:101CC8000000F0FF00000811014B1860704700BFCA
:101CD800040000100239012902D8034B1B68184779
:101CE8004FF0FF30704700BF040000100FB41FB55D
:101CF80006AB002153F8042B0548009102210393F9
:101D0800FEF718FF05B05DF804EB04B0704700BF9C
:101D1800574600002DE9F041104F064600254FF0C8
:101D28000108347854FA85F4204600F007F968B1C0
:101D3800204600F037F957F834303BB107EBC402BE
:101D480004F01F04516808FA04F0984772780135C6
:101D5800EBB29A42E5D2BDE8F08100BF4402001020
:101D6800014B23F810107047480000100B4910B5BC
:101D78004FF480134FF098420424D2F8840088422C
:101D88000AD0581CF9D0013BF7D183F31188BFF36F
:101D98006F8F204602DFF0E710BD00BF0002008011
:101DA800034678B1B0FA80F2C2F11F02D2B20649F6
:101DB80031F91200054AD2F8C0100B43C2F8C030FE
:101DC800FFF764BDFF22F2E74800001000D0005082
:101DD800034AD2F8C03023EA0003C2F8C030704783
:101DE80000D0005038B50D460446FFF7BFFF032D5D
:101DF80019D8DFE805F0020C101E114B1A6822EA08
:101E080004021A60586820EA04045C600BE00C4B7A
:101E18001A682243F5E70A4B5A6822435A60186841
:101E280020EA04041C604FF098434FF400725A6093
:101E380038BD034B1A6822431A6058680443E4E724
:101E480000D0005030B5A8B1B0FA80F3C3F11F0339
:101E5800DBB20C4C54F83300884204D104EBC305C0
:101E68006D68954208D048B944F8331004EBC303B1
:101E78005A6030BDFF23ECE70020FAE76FF00F004F
:101E8800F7E700BF4402001060B1B0FA80F3C3F175
:101E98001F03DBB2044A002142F8331002EBC303EC
:101EA80059607047FF23F5E744020010C200C0F3F1
:101EB8008100064B183053F8201002F018000F2349
:101EC80083400B4023FA00F0704700BF00D0005059
:101ED8000B4910B54FF480134FF098420424D2F800
:101EE800840088420AD0581CF9D0013BF7D183F30B
:101EF8001188BFF36F8F204602DFF0E710BD00BFE7
:101F08000002008013B50C4C204603F0D5F960B1EF
:101F18004FF400630A22CDE90023A3681B683BB194
:101F280069462046984702B010BD6FF01200FAE7E4
:101F38006FF05700F7E700BF3C5500005F2870B509
:101F480006462BD800F01F050124FFF7C1FF1F2EFE
:101F580004FA05F511D8124BDA6835EA020219D0ED
:101F68001B6935EA030308BF204618BF00204FF05D
:101F780098434FF400725A6070BD3F2E0CD9084B3D
:101F8800DA6C35EA020205D01B6D35EA030308BF97
:101F98000120EAE72046EAE70020E8E70020EBE72F
:101FA80000D0005038B55F2800F01F034FF001043F
:101FB800054604FA03F413D8FFF78AFF1F2D09D842
:101FC800094BDC601C614FF098434FF400725A6073
:101FD800002038BD3F2D82BF034BDC641C65F2E74F
:101FE8006FF01500F5E700BF00D0005038B50B883A
:101FF800C3F30B03013B0D4614460B2B21D8DFE836
:1020080013F01D010C008B0020002000330120007C
:102018003B014101D000E600FA004B68B3F5003FF0
:1020280061D03AD8B3F5006F59D025D8B3F5807F81
:1020380012D01AD8202B13D8032B05D8013B012B1B
:102048000AD96FF0850066E00122043B02FA03F327
:102058009B4A1A40002AF4D09A4801F07FF94BE0D5
:10206800402BF9D0802BF7D0EBE7B3F5007FE8D110
:10207800954801F0ABF93FE0B3F5004F33D009D8EC
:10208800B3F5805F2BD0B3F5804FDAD18F4801F0DC
:102098007BFB31E0B3F5803FF7E7B3F1807F12D0E7
:1020A80013D8B3F5001F20D007D8B3F5802F02D07E
:1020B800B3F5002FC5D18648E9E7B3F5800F14D0F2
:1020C800B3F5000FBDD1834810E0B3F1806F10D095
:1020D800B3F1006FB5D1032003F01CF80CE07E4883
:1020E80001F0B2FA08E07D48D1E77D4801F03EFAF8
:1020F80002E0032000F01CFF20602B6823F47F60BF
:1021080020F00F0038B1C3F31333226801330020E5
:10211800B2FBF3F3236038BD4B68B3F5803F36D08C
:102128001ED8B3F5007F30D011D8102B09D8002B5A
:1021380087D0012202FA03F36A4A134281D06A481F
:102148008BE7B3F5807F7FF47CAF6848C8E7B3F5C9
:10215800806F1AD0B3F5005F7FF473AF644896E7D9
:10216800B3F5801F19D008D8B3F5003F13D0B3F5E5
:10217800802F7FF466AF5F480AE0B3F1807F7FF479
:1021880060AF032000F0A2FEB6E75B48A8E75B4813
:1021980000F0AAFFB0E75A48FAE7584801F03AF8C1
:1021A800AAE74B68082B0AD00BD8022B04D8002BBF
:1021B8003FF447AF53485CE7042B7FF442AF5248E3
:1021C80057E7B3F5807F7FF43CAF5048E0E74B68B2
:1021D800102B08D0B3F5803F09D0012B7FF431AF25
:1021E80002F0F5FF88E7012002F0B6FF84E703203C
:1021F80000F0CCFE80E74B68102B19D008D8042BD0
:1022080013D0082B11D0012B7FF41BAF404867E790
:10221800B3F5801F0ED0B3F5001F0BD0B3F5807F48
:102228007FF40FAF01F02CF866E74FF4E0605DE74C
:1022380038482CE7032000F0CDFF5DE74B68B3F585
:10224800807F09D0B3F5803F0AD0202B7FF4F9AE08
:10225800032002F095FF4FE7102000F0BFFE4BE788
:102268002D4801F02DF947E74B68402B7FF4E9AE84
:102278002A4800F0C9FE3FE74B68402B7FF4E1AEE7
:102288002748F6E74B68B3F5804F58D04AD8B3F5DE
:10229800805F50D03FF6D5AEB3F5007F06D009D8A1
:1022A800802B03D0B3F5807F7FF4CBAE032002F000
:1022B80011FF21E7B3F5806FF8D0B3F5006FF3E7AE
:1022C80011100010000168070007740800072808AB
:1022D800000730080007040800071C0800072C083E
:1022E800000700081601010000016C070007180824
:1022F800000724080007100800072008000708083E
:1023080000070C080007700800076C08000714088D
:1023180000070400000708000007380800036008E9
:1023280000030C00B3F5803F03D0B3F5003F7FF402
:1023380088AE054895E7032002F08DFFDCE6032010
:1023480002F059FFD8E600BF000734080749084AD9
:102358000B681268D054013340F2FF3293FBF2F25B
:10236800C2EB82229B1A0B60704700BFC4020010A8
:10237800C802001010B5064C064B074A1A602046E2
:10238800FEF7C4FB2046FFF79FFC002010BD00BFEE
:1023980055230000C8020010DD0300102DE9F843A2
:1023A800D0F80480D0F81090D8F8080017460E46E8
:1023B8001C4602F0EAF9B7F5001F054615D130466C
:1023C800D8F80840FFF772FD84420CD1314602F07C
:1023D800DCF90446FFF7FCFC2046FFF755FD002119
:1023E8002046FFF7FFFC00241FE0B7F5800F23D03D
:1023F800B4F1806F1CD0B4F1C06F1BD0B4F1007F72
:102408001DD1022711494A462846FFF71BFD0446FD
:10241800C0B9D8F80810304602F0BCF92846394649
:10242800FFF7E0FC2846FFF7BBFC2046BDE8F88331
:102438000127E7E70327E5E76FF08504F5E76FF085
:102448001504F2E76FF00F04EFE700BF1F4C000020
:102458000B4910B54FF480134FF098420424D2F87A
:10246800800088420AD0581CF9D0013BF7D183F389
:102478001188BFF36F8F204602DFF0E710BD00BF61
:102488000002008038B50369044658600A4D2846A2
:1024980002F012FF60B1AB6861681B680C3123B1B0
:1024A8002846984700EAE07038BD6FF05700F9E712
:1024B8006FF01200F8E700BF3C5500002DE9F04727
:1024C8001E4F044600EBC1060025B44201D100208E
:1024D80014E02068C30600F01F0911D4656845F0B0
:1024E8002005C0F3481AC0F34420102823D857F811
:1024F8002080B8F1000F0DD16FF01200BDE8F08711
:10250800B9F1100F04D0B9F1110FEAD16568E8E705
:102518003025E6E7404602F0CFFE0028ECD04B46D7
:102528002A460AF00F01404602F087FB002804F112
:102538000804CADAE2E76FF01500DFE7905D0000F3
:1025480043681B689A68B3F1B84F42F001029A6079
:1025580018D0114A934215D002F58052934211D0F7
:1025680002F5805293420DD002F58052934209D071
:102578000A4A934206D00A4A934203D002F580528F
:10258800934203D15A6842F040025A601A6842F4F2
:1025980080721A60704700BF00E0004000300044BD
:1025A8000080014043681B689A68B3F1B84F22F075
:1025B80001029A6018D0114A934215D002F5805250
:1025C800934211D002F5805293420DD002F5805209
:1025D800934209D00A4A934206D00A4A934203D04A
:1025E80002F58052934203D15A6822F040025A60A1
:1025F8001A6822F480721A60704700BF00E0004039
:102608000030004400800140F8B503690C465D685D
:1026180023794168012B19D0022B0CBF4FF4806E2F
:102628004FF0000E6279022A9CBF454E36F812C060
:10263800A27988BF4FF4005C022A0AD0042A31D05C
:10264800002B0CBF00274FF4805707E04FF4C06EF3
:10265800E8E7002B14BF00274FF08057E27909689C
:10266800012A0CBF4FF440760026A5420B681CD106
:1026780023F0805323F4B05343EA0E033B430B602B
:102688004B6823F4405343EA0C034B6043681A68D1
:10269800936823F44073334393602968BDE8F84096
:1026A80002F0B6BB4FF48057D8E703F4C0639E45E9
:1026B8001FBF0B6823F4C06343EA0E030B60436833
:1026C80019684B6803F440539C451FBF4B6823F4BB
:1026D800405343EA0C034B60436819680B6803F0E6
:1026E80010239F421FBF0B6823F010233B430B604E
:1026F800436819688B6803F440739E421FBF8B6858
:1027080023F4407333438B6043681B68D71E996872
:102718007E427E41C1F380318E4207D0032A9A68F7
:102728000CBF42F4804222F480429A6021682B68F0
:10273800994203D002F06CFB23682B60F8BD00BF00
:10274800905E00002DE9F341046947680646554844
:10275800206002F0B1FD20B96FF0120002B0BDE8B0
:10276800F0812068F96883681B68002B00F094806A
:1027780098470028F2DB386A01AA002102F075FAAE
:102788000028EBDB019B002219791868FFF796FEF9
:102798000028E3DB756833692C68D3F80480236864
:1027A80023F001032360686802F086FD0028D3D077
:1027B800D5E901018368DB6803B19847236843F0D2
:1027C8000C03236041463046FFF71EFF2B7D1BB1EB
:1027D800A36843F00803A3606B7D1BB1636843F4EF
:1027E80000436360AB7D1BB1636843F4803363606F
:1027F800EB7D1BB1636843F4003363602B7E002BD1
:1028080035D0B4F1B84F18D0274B9C4215D003F5FA
:1028180080539C4211D003F580539C420DD003F5A0
:1028280080539C4209D0214B9C4206D0204B9C42AD
:1028380003D003F580539C4231D173681A689368BA
:1028480043F48043936023686A7E23F0787343EAF5
:10285800425323602368AA7E23F4F81343EA024311
:102868002360EB7E1BB1A36843F40043A3602B7F76
:102878001BB1236843F000532360236843F001032E
:102888002360E3699A02FCD5E3695B02FCD5304614
:102898007B6A9847002061E76FF057005EE76FF0AA
:1028A80015005BE73C55000000E0004000300044A4
:1028B800008001402DE9F04143681C680369D3F8A2
:1028C80004800B79012B02460D4619D0022B0CBF50
:1028D8004FF48061002195F805C0AE79BCF1020F74
:1028E80096BF37484FF4005730F81C70022E0AD0B4
:1028F800042E58D0002B14BF4FF48050002007E05E
:102908004FF4C061E7E7002B0CBF4FF08050002068
:10291800A3F1030EBEF1010F4ED90BB1042E4BD01B
:10292800B7F5805F42D0B7F5405F41D0002F14BFA4
:10293800032301239C453FD102F0E4F986423BD1B1
:10294800EB79EBB1012B35D1B4F1B84F18D01D4B51
:102958009C4215D003F580539C4211D003F5805357
:102968009C420DD003F580539C4209D0164B9C42E3
:1029780006D0164B9C4203D003F580539C421BD1D2
:10298800236823F00103236029461046FFF73CFE25
:10299800236843F00103236095E8030088E80300F7
:1029A8000020BDE8F0814FF48050B1E70023C1E773
:1029B8000223BFE7032BC7D06FF08500F1E700BF04
:1029C800905E000000E000400030004400800140BC
:1029D8004FF0E0239A69196998690C4B1B68002A23
:1029E80008BF1A46002808BF184611F4803F084956
:1029F80001D1824205D20A681A440A604FF0E022E7
:102A080012690A681344181A704700BFA803001017
:102A1800AC0300100A4B102283F82320094B45F21F
:102A2800A4121A60084B002018604FF0E02345F20A
:102A3800A3125A6198611A6942F007021A61704735
:102A480000ED00E0A8030010AC030010684620F079
:102A580007018D4619B5FFF7BBFF114B1149D3E9A3
:102A680000420868001942F10002C3E900020E4A58
:102A780000230B60D2E9004145F2A413001BB0FB10
:102A8800F3F043431B1941F10001C2E9003101F0A1
:102A980097FCFEF779FCBDE819408546704700BFF2
:102AA80090000010AC03001088000010F8B5394FF2
:102AB80059B1421C09D14FF0E022136923F00103F8
:102AC80013614FF07F433B60F8BD431C3D6803D062
:102AD800012803DC002407E040F2213040F22234D0
:102AE800A042A8BF2046441EEFF31186102383F3AB
:102AF8001288BFF36F8FFFF76BFFDFF89CC0DCE92C
:102B080000124FF0E023401842F100029B69CCE923
:102B18000002224A00211160214A1268811A1BD53D
:102B280040F21A523A604FF0E02138688A69013859
:102B3800486193424FF00000886123D22B449B1ACE
:102B4800DCE900219B1841F10002CCE9003286F350
:102B58001188BFF36F8FB7E745F2A41E0EFB04116F
:102B6800121A01F5A3412331B1FBFEF10EFB01213D
:102B78000C4A9142D6D840F21A5291422CBF396081
:102B88003A60D0E79B1ADCE900125B1842F10002B8
:102B9800DBE700BFA803001090000010AC03001092
:102BA800880000102472FF0038B5EFF31185102358
:102BB80083F31288BFF36F8F084B1868084B1C68A3
:102BC800041BFFF705FF85F31188BFF36F8F45F2EC
:102BD800A4132044B0FBF3F038BD00BF90000010F0
:102BE800880000102DE9F3414FF0A0420546936A92
:102BF80013F0030358D0012B60D000260023C5E949
:102C08000033AB604FF0A043D3F89870D3F8982006
:102C1800D3F8A04014F4803418BFD3F8A040C2F30E
:102C28000808D3F89420C7F3054718BFC4F3CC04A9
:102C3800D00607F1010708F101080CD5D3F89C303C
:102C480003F07F030133009342462346394630465A
:102C580002F012FA28604FF0A043D3F894209106AE
:102C68000CD5D3F89C30C3F30623013300934246B6
:102C780023463946304602F0FFF968604FF0A0431A
:102C8800D3F8942052060CD5D3F89C30C3F30643EE
:102C980001330093424623463946304602F0ECF9A8
:102CA800A86002B0BDE8F081D2F80838DC07A4D5E6
:102CB8009369054E03F00303DE409FE702F0A7F98E
:102CC80000289AD0014E99E70090D00300366E0193
:102CD8002DE9F3414FF0A0420646D2F8203803F020
:102CE8000303012B63D0022B67D01BB9D2F8083835
:102CF800DC0701D4002404E09369334C03F0030398
:102D0800DC400023C6E90033B3604FF0A043D3F89A
:102D18008478D3F88428D3F88C5815F4803518BFF4
:102D2800D3F88C58C2F30808D3F88028C7F30547AE
:102D380018BFC5F3CC05D00607F1010708F1010853
:102D48000CD5D3F8883803F07F030133009342464B
:102D58002B463946204602F08FF930604FF0A043E9
:102D6800D3F8802891060CD5D3F88838C3F3062306
:102D78000133009342462B463946204602F07CF93F
:102D880070604FF0A043D3F8802852060CD5D3F8D2
:102D98008838C3F306430133009342462B4639462D
:102DA800204602F069F9B06002B0BDE8F08102F097
:102DB8002EF900289ED0054CA3E702F02FF9002831
:102DC80098D0034C9DE700BF0090D00300366E01F9
:102DD80000093D002DE9F3414FF0A0420546D2F825
:102DE800243803F00303032B68D0002B60D1D2F8FA
:102DF8000838DC0756D400260023C5E90033AB6049
:102E08004FF0A043D3F89878D3F89828D3F8A0487F
:102E180014F4803418BFD3F8A048C2F30808D3F8D4
:102E28009428C7F3054718BFC4F3CC04D00607F1AC
:102E3800010708F101080CD5D3F89C3803F07F038B
:102E480001330093424623463946304602F014F9CE
:102E580028604FF0A043D3F8942891060CD5D3F8F6
:102E68009C38C3F306230133009342462346394670
:102E7800304602F001F968604FF0A043D3F8942877
:102E880052060CD5D3F89C38C3F30643013300939C
:102E9800424623463946304602F0EEF8A86002B0B2
:102EA800BDE8F0819369064E03F00303DE40A3E713
:102EB80002F0ADF800289ED0024E9DE7024E9BE737
:102EC8000090D00300366E010080BB001FB54FF0A4
:102ED800A043D3F80C3903F00303022B13D0032BC0
:102EE80019D0012B06D002F092F8E8B9002005B0FD
:102EF8005DF804FB02F0B2F80028F7D001A8FFF74C
:102F0800E7FE0298F3E702F0B0F80028EED001A837
:102F1800FFF760FFF5E702F0A8F80028E6D001A85F
:102F2800FFF758FF0398E2E70048E0E700366E0134
:102F38001FB54FF0A042D2F8143903F00303012B58
:102F48000ED0022B15D013B902F08FF808B9002063
:102F580003E001A8FFF73EFF019805B05DF804FB08
:102F680002F07CF80028F2D001A8FFF7B1FE029821
:102F7800F3E7D2F80838DB07E9D59369024803F08C
:102F88000303D840E9E700BF0090D0031FB54FF016
:102F9800A043D3F81C3903F00303012B07D0022BFD
:102FA80010D013B902F033F890B9002007E002F00E
:102FB8005CF80028F9D001A8FFF70CFF039805B0CA
:102FC8005DF804FB02F023F80028EED00148F6E78C
:102FD8000148F4E7001BB70000366E011FB54FF03B
:102FE800A043D3F81C39DB0603D5064805B05DF8C5
:102FF80004FB02F03AF80028F8D001A8FFF7EAFE2F
:103008000398F3E7006CDC021FB502F01CF81F4BB5
:1030180098420FD8043B984201D8002024E0A0F53C
:1030280040206FF44073184402280FD8DFE800F0FE
:10303800141F2600A0F10660A0F540700328ECD804
:103048000328EAD8DFE800F00208131A01F0E6FFC7
:103058000028E2D00E4807E002F007F80028DCD08C
:1030680001A8FFF7B7FE039805B05DF804FB01F06F
:10307800DCFF0028D1D04FF40040F5E701F0DCFF79
:103088000028CAD04FF4FA40EEE700BF03030C0053
:1030980000093D0008B54FF0A042D2F8D03003F047
:1030A8000303012B0ED0022B12D01BB9D2F808381B
:1030B800DB0701D4002004E09369084803F0030308
:1030C800D84008BD01F0AAFF0028F3D00448F8E76B
:1030D80001F09DFF0028EDD00248F2E70090D003F0
:1030E80000093D0000366E011FB501F0ACFF344BFE
:1030F800984235D8053B98420AD8A3F5FF23A3F296
:10310800FB73984217D8053B98420CD800203AE048
:10311800A0F101606FF4E063184403282BD8DFE8BE
:1031280000F0354C3D43274B0344032B23D8DFE8FD
:1031380003F02D44353B244B0344052BE6D8052BDF
:10314800E4D801A252F823F07F3100009531000045
:10315800C3310000A531000015310000B131000075
:103168001A4B0344042BD1D8042BCFD8DFE803F043
:10317800030E25161C0001F078FF0028C6D001A810
:10318800FFF728FE029805B05DF804FB01F066FF22
:103198000028BBD001A8FFF79BFDF3E7032005B08B
:1031A8005DF804EBFFF776BF01F058FF0028ADD0BB
:1031B80001A8FFF78DFD0398E5E70548E3E700BFA1
:1031C80004071008FFF8F7F700F9F3F700F9EBF731
:1031D8000080BB0008B54FF0A042D2F8D43013F0FD
:1031E800030303D0012B0BD0002008BDD2F8083808
:1031F800DB07F9D59369054803F00303D840F4E7E2
:1032080001F005FF0028EFD00148EEE70090D00359
:1032180000366E011FB5184A104601F014FF801AD7
:1032280004280BD8DFE800F0071103191F00134822
:1032380005B05DF804FB01F018FF08B90020F7E7B6
:1032480001A8FFF7C7FD0298F2E701F007FF002881
:10325800F4D001A8FFF73CFDF5E7032005B05DF8C1
:1032680004EBFFF717BF01F0F9FE0028E6D001A82C
:10327800FFF72EFD0398DBE7000708080080BB0076
:1032880008B54FF0A042D2F8403103F44033B3F50B
:10329800003F0AD0B3F5403F0ED0B3F5803F02D1CE
:1032A80001F0C3FE80B900200DE001F0C5FE002842
:1032B800F9D04FF4FA4006E0506C00F03F00431C90
:1032C8000348B0FBF3F008BD4FF40040FBE700BF34
:1032D80000366E011FB54FF0A042536A03F0070392
:1032E800012B0FD0022B08D073B99369074803F05C
:1032F8000303D84005B05DF804FB01A8FFF772FC92
:103308000198F7E70248F5E70020F3E70090D003BB
:1033180000366E011FB54FF0A042936C03F0030313
:10332800022B10D0032B09D0012B0ED0936908482B
:1033380003F00303D84005B05DF804FB01A8FFF7CC
:10334800C7FC0198F7E70348F5E70348F3E700BF30
:103358000090D00300093D0000366E0110B5044608
:10336800FFF7D8FF4FF0A043D3F83028D3F834182C
:1033780002F00F0220FA02F2204601F064FE114B1F
:10338800984201F007010FD00CD8A3F5802398428A
:103398000AD00133984213D103290BD004290BD04A
:1033A800104610BD084BF5E7032905D0042905D0C0
:1033B8000229F5D15208F3E79208F1E7D208EFE7BE
:1033C8000022EDE700016C0701016C071FB501F051
:1033D8003AFE384B98421AD8053B984205D8364BE6
:1033E8000344052B0CD9002033E0A0F107606FF4EB
:1033F800E063184403284CD8DFE800F05445373E12
:10340800052BF0D8DFE803F0451D2831383F2B4B5A
:103418000344052BE7D8052BE5D8DFE803F00312B2
:103428001D262D34FFF776FF4FF0A043D3F8302840
:10343800D3F8343802F00F02D04003F00703D84025
:1034480007E001F012FE0028CDD001A8FFF7C2FC6A
:10345800019805B05DF804FB01F000FE0028C2D019
:1034680001A8FFF735FC0298F3E701F0DEFD00281C
:10347800B9D04FF40040ECE701F0DEFD0028B2D0EF
:103488004FF4FA40E5E7032005B05DF804EBFFF7D9
:1034980001BEFFF73FFF4FF0A043D3F83028D3F821
:1034A8003C38C7E701F0E1FD00289CD001A8FFF7F0
:1034B80091FCD8E70407700800F993F700F98BF737
:1034C8001FB501F0C0FD254B98420CD8043B98422B
:1034D80001D8002020E0224B0344022B0DD8DFE85E
:1034E80003F0131E27001F4B0344032BF1D8032BB3
:1034F800EFD8DFE803F02909141DFFF7EBFE05B04C
:103508005DF804EB01F06EBE01F0A8FD0028E0D0E4
:1035180001A8FFF7DDFB039805B05DF804FB01F097
:10352800A4FD0028D5D001A8FFF754FC0198F3E7C3
:103538004FF0A043D3F80828D207CAD59B690A4898
:1035480003F00303D840E7E7FFF7E4FE4FF0A0439A
:10355800D3F8303803F00F03F4E700BF030734084B
:10356800FFF8CBF700F9C7F70090D0031FB501F0BB
:103578006AFD314B984219D8043B984205D8A0F50A
:10358800E06003280CD9002030E000F178406FF4A7
:10359800E0610844022813D8DFE800F0202B370048
:1035A8000328F0D8DFE800F0373F2531234B0344E8
:1035B800032BE8D8032BE6D8DFE803F002101B271B
:1035C800FFF7A8FE4FF0A043D3F83028D3F83438DB
:1035D80002F00F02D04003F0070314E001F045FDAC
:1035E8000028D0D001A8FFF7F5FB039805B05DF8D7
:1035F80004FB4FF0A043D3F80828D207C3D59B6932
:103608000F4803F00303D840F0E701F007FD002856
:10361800B9D00C48EAE7FFF75DFE01F0E3FD4FF093
:10362800A0431B6CD7E701F019FD0028ABD001A817
:10363800FFF74EFB0298D9E70307000800F9FBF7EC
:103648000090D00300093D001FB501F0FCFC464B7B
:10365800984213D8053B984207D8A0F58020A0F5DA
:10366800E060052803D900202BE0404B0DE0052839
:10367800F9D8DFE800F06F4F576369293C4B98424F
:103688000AD8053B9842EED93A4B0344032B10D88D
:10369800DFE803F01A682329A0F10260A0F5E060D2
:1036A8000428E0D80428DED8DFE800F026343C48B7
:1036B8004E0001F0DAFC0028D5D001A8FFF78AFBFC
:1036C800019805B05DF804FB01F0C8FC0028CAD0D9
:1036D80001A8FFF7FDFA0298F3E7032005B05DF8AB
:1036E80004EBFFF7D7BC01F0B9FC0028BBD001A858
:1036F800FFF7EEFA0398E4E7FFF70CFE4FF0A0435C
:10370800D3F83028D3F8383802F00F02D04003F04D
:10371800070311E001F0A9FC0028A4D001A8FFF7D5
:1037280059FBD8E74FF0A043D3F80828D2079AD519
:103738009B69114803F00303D840C2E701F06EFC0F
:10374800002890D00D48BCE701F061FC00288AD021
:103758000B48B6E7FFF7BEFD01F044FD4FF0A0436C
:103768001B6CD4E70748ACE704071808FFF8E7F72D
:1037780004071C08FFF8E3F70090D00300093D0098
:1037880000366E010080BB001FB501F05CFC464BA3
:10379800984221D8053B98420FD8A0F50020A0F503
:1037A800E060052811D9002046E0404B0344032B74
:1037B80065D8DFE803F05644505E3D4B0344032BC5
:1037C80069D8DFE803F04E3C48560528EBD8DFE817
:1037D80000F0212B36424850364B98420DD8053B15
:1037E8009842E2D8344B0344042BDCD8042BDAD8B3
:1037F800DFE803F0453725313F00A0F10360A0F56D
:10380800E0600428CFD80428CDD8DFE800F0382AB3
:1038180018243200FFF75EFD01F0E4FC4FF0A043EE
:103828001B6C03F0070314E001F018FC0028BAD061
:1038380001A8FFF74DFA029805B05DF804FB4FF0B8
:10384800A043D3F80828D207ADD59B691B4803F0DD
:103858000303D840F0E701F0E1FB0028A3D01848A3
:10386800EAE701F002FC00289DD001A8FFF7B2FAB0
:10387800E1E701F0CCFB002895D01248DCE7FFF720
:1038880049FD4FF0A043D3F83028D3F8343802F07C
:103898000F02D040C5E7FFF73DFD4FF0A043D3F836
:1038A8003028D3F83838F2E704072408FFF8D3F7AC
:1038B800FFF8DBF704072C0800F9D7F70090D003CE
:1038C80000093D0000366E0138B5EFF3118510236D
:1038D80083F31288BFF36F8F064B9C6801F0FFFCDF
:1038E80085F31188BFF36F8F2046BDE83840FDF798
:1038F8007BBF00BFB003001038B50A4B53F8204017
:10390800013053F82050A54200D838BD606830B166
:10391800037FDB0701D401F0E5FC0834F3E72368F3
:103928009847FAE7785E000070B52A4B2A4C2B4D71
:10393800012286B003201A70FFF7DEFF00F0B6FD03
:103948000420FFF7D9FF2646AE4204F1300410D315
:1039580000F03AFA204C224EAC4226D300F048FA46
:10396800FDF796F81F4A137B23F00103137306B083
:1039780070BD54F80C3C059354F8103C049354F86B
:10398800143C039354F8183C029354F81C3C0193DC
:1039980054F8203C009354E90C0154E90A2300F040
:1039A800CFF854F8303C5E65CDE7D4E90A23B3F18B
:1039B800FF3F08BFB2F1FF3F05D052EA030120687C
:1039C80003D100F0D3FA3034C6E73146183000F09E
:1039D80067FCF8E7DD070010EC5B0000EC5B00001B
:1039E800B55300001801001008B50348034A002128
:1039F800121A01F08EFC08BD88000010E0070010C4
:103A080070B5002386B00122CDE90423134E144D6E
:103A180001930F22CDE902321249142303FB00550A
:103A280006EBC01604464FF4C07000FB04110E4BA1
:103A380000954FF4A072304600F082F8737B0B4873
:103A48002C7423F0040373734FF4046303FB04041E
:103A58001C44EE606C6006B070BD00BF980000109A
:103A6800B0030010400C001023530000C00D0010DC
:103A7800BFB50020FFF740FF294B83F30888294C86
:103A8800294F636943F4007363610025F02384F8C8
:103A98002230E57725766576A57684F82050636A26
:103AA80043F4E0236362FDF76FFEFDF78DFF4FF0EF
:103AB800FF33A362E362FEF74FF8FDF7A9FF1B4847
:103AC8001B4C00F07BF801F0F6FBFDF70DFC012024
:103AD800FFF712FF0220FFF70FFF00F0BFF9154BA9
:103AE80015495C61154B05930123CDE903534FF448
:103AF80080623B46CDE901550095204600F020F84C
:103B0800627B064622F004022046627301F022FC22
:103B18002846FFF775FF3A4631462046FDF73AFF3B
:103B28000016001000ED00E0313900009801001087
:103B380018010010B003001000080010E463000032
:103B4800F0B5073285B022F0070204467F320E9D99
:103B58000D9E2573583022F03F02C4E91600042553
:103B680000203F2AA673C4E90600A0606573E073CD
:103B780001F14007A2F1400605D880F31188BFF390
:103B88006F8F284602DF8D180C9A02920B9A0192C9
:103B9800C4E919760A9A00920026E6662A46204663
:103BA800FDF7C6FE044B66659B6803B11B6F236770
:103BB800284605B0F0BD00BFB003001040F2011365
:103BC80083810023C0E919330367014B986070476C
:103BD800B0030010094A93686FF00A019967084911
:103BE80058674B6843F080534B60002383F3118878
:103BF800BFF36F8F9368986F704700BFB0030010D2
:103C080000ED00E070B590F90D20437B002A29DB18
:103C1800D90627D11D4C63F07F032246437352F81F
:103C2800183F934224D01BB3E66990F90E5093F9DC
:103C38000E108D4217D0491B002914DD5968C0E9C0
:103C4800003108605860A569954200D005B9E5685B
:103C5800A3685A7BD20611D1DA897F2A0ED9AA69BC
:103C680062B9636170BDB34202D01B68002BDED11C
:103C7800E369C0E900231860E061E4E7AB4202D0E1
:103C8800284600F06BFA6561ECE700BFB00300104E
:103C980038B590F90D20437B002A014604DA03F079
:103CA8007F03437301F044FB0D4D2A46AB6852F87D
:103CB800184F944200D004B9EC688B4209D05A7B63
:103CC800D20606D1DA897F2A03D9A2690AB96B61BB
:103CD80038BDA34202D0204600F040FA6C61F7E7F5
:103CE800B003001070B590F90D20437B002A0146FF
:103CF80004DA03F07F03437301F01AFB4B7B1E4C7D
:103D080063F07F0322464B7352F8183F934226D044
:103D18002BB3E66991F90E5093F90E00854219D03C
:103D2800401B002816DD5868C1E900300160596061
:103D3800A569A368954200D005B9E5688B4214D0FF
:103D48005A7BD20611D1DA897F2A0ED9AA6962B9BB
:103D5800636170BDB34202D01B68002BDCD1E369FC
:103D6800C1E900231960E161E2E7AB4202D02846CD
:103D780000F0F4F96561ECE7B003001049B9EFF31E
:103D8800058030B9054B5A699B689A4201D0FFF704
:103D980021BF81F31188BFF36F8F7047B003001004
:103DA800034648B9EFF3058232B9064A5169926869
:103DB800914201D0FFF70EBF83F31188BFF36F8FD5
:103DC800704700BFB0030010EFF31181102383F395
:103DD8001288BFF36F8F054B9A68D37B013BD3736F
:103DE80081F31188BFF36F8F704700BFB0030010D5
:103DF80070B5EFF31186102383F31288BFF36F8F2A
:103E0800154DAB68DA7B0132DA732A4652F8184F3F
:103E1800944200D004B9EC685A7BD20614D1DA89EE
:103E28007F2A11D9A2697AB96B6186F31188BFF329
:103E38006F8FEFF31180102383F31288BFF36F8F16
:103E4800BDE87040FFF7ACBFA34202D0204600F0A7
:103E580085F96C61E9E700BFB0030010024B03F17C
:103E68001802C3E906227047B003001070B5EFF3DB
:103E78001186102383F31288BFF36F8F1B4CA16840
:103E8800E0690B68814214BF1A46002249680B603A
:103E98005960A368E0692AB9154AC3E9002003609C
:103EA800E3610DE093F90E5092F90E108D4219D08E
:103EB800491B002916DD5168C3E900210B605360D6
:103EC800A5690B4B9D4200D005B9E568A3689D42E2
:103ED80002D0284600F042F965613046BDE87040DE
:103EE800FFF778BE8242D7D01268D4E7B00300103B
:103EF800C8030010F8B550EA010306460D4603D181
:103F0800FFF7B4FF0020F8BDEFF31187102383F308
:103F18001288BFF36F8F124C124BA0681860FFF71E
:103F2800B7FEA06810492B463246183000F0B8F9A1
:103F3800A268537B43F00403537305463846FFF7E2
:103F480049FEA368D3E90A230020B3F1004F08BF54
:103F58008242D8D101F095FA281A20EAE070D2E717
:103F6800B0030010D0030010B553000038B5044664
:103F7800EFF31185102383F31288BFF36F8F437B10
:103F88005B070FD5183001F054FA637B23F0040364
:103F980020466373FFF736FE29460548BDE83840DA
:103FA800FFF7ECBE85F31188BFF36F8F38BD00BFF4
:103FB800DE070010014B9868704700BFB00300107F
:103FC8002DE9F8430446077BEFF31185102383F3AB
:103FD8001288BFF36F8F437B190705D585F31188C6
:103FE800BFF36F8FBDE8F883D90943F0080258D1B1
:103FF8004273A36813B1204601F0A2F904F1180036
:1040080001F017FAA66D04F15808B04511D04FF029
:10401800000976B1304601F093F906F1180001F075
:1040280008FAC6F878903046FFF7ECFDA66DB04563
:10403800EFD1DFF8C080D8F808309C4239D04FF073
:104048000009D8F818602C4A964200D00EB9D8F862
:104058000C60B34202D0304600F080F82046C8F821
:10406800146000F0AFFAB9F1000F02D02348FFF74F
:10407800A5FDD8F808309C4236D1EFF305839BBBE9
:10408800227BD2071DD42846FFF7A4FDFB07A9D53C
:10409800002383F31188BFF36F8F0423184602DFD0
:1040A800A0E703F07F0343F00803437301F040F9EE
:1040B8009FE7EFF30589B9F1000918BF4FF001092F
:1040C800BFE785F31188BFF36F8F83F31188BFF3C0
:1040D8006F8F0423184602DFEFF31180102383F358
:1040E8001288BFF36F8FCFE785F31188BFF36F8F07
:1040F800CCE700BFB0030010C803001098010010FF
:10410800044BC01A044BC0105843044B01221A54E4
:10411800704700BF18020010ABAAAAAADE07001059
:10412800C3897F2B12D80A4B1B6863B1094B90F9DE
:104138000E201B689A4209DB437BDB0606D1064B3F
:10414800C31A18BF012303F0010070470023FAE7E0
:104158003C000010D40300109800001070B50E4BFE
:104168001E7C0E4B06EB460403EBC40405462046B2
:1041780001F05FF90A4B00229A552846FFF7D0FF55
:1041880048B1084B08491A68013A2046D317BDE8D8
:10419800704000F085B870BDB00300101802001020
:1041A800DE0700103C0000100941000038B5EFF3AD
:1041B8001185102383F31288BFF36F8F104B114AB8
:1041C8009C681068A04206D1FFF7C8FF85F31188E4
:1041D800BFF36F8F38BD00211B7C11600A4AD35C86
:1041E800002BF3D02046FFF79BFF0028EED0637B1F
:1041F800DB0602D12046FFF775FD2046E4E700BF45
:10420800B0030010D0030010DE0700100748084A6A
:10421800084908B5121A01F07EF80748074A084904
:10422800BDE80840121A01F076B800BF000000107F
:10423800880000101064000000000010000000104A
:1042480010640000024B1868984208BF00207047AD
:1042580040000010034B1B680BB9FEF7A5BC0020FB
:10426800704700BFD803001030B570B10B4B5B68C6
:1042780098420AD0036843B1D3E90421D0E9044540
:10428800121941EB0501C3E90421D0E9003213609A
:104298005A600023C0E9003330BD00BF4000001061
:1042A800B3F1FF3F08BFB2F1FF3F2DE9F84F0446D5
:1042B800994615461F467AD08160EFF3118810237E
:1042C80083F31288BFF36F8FB9F1000FDFF8E4A012
:1042D80020DBFFF7BFFFDAE90027013549F10003CA
:1042E8002D1843EBE073C4E90453AD18064643EBBD
:1042F80007074FF00109FFF7A5FFDFF8BCE0DEF87C
:1043080004A00346EBB9C4E900EACAF80040CEF8B5
:10431800044028E0DAE900126FF001035B1A4FF05D
:10432800FF3161EB02025B1B62EB0902012B72F1A8
:104338000001BCBF01230022C0E904324FF000098C
:10434800D9E7D3E9041CD4E904208A4270EB0C0BAA
:1043580024DA8A1A6CEB0000C3E904205A68C4E91D
:10436800003214605C60FFF76DFF84420ED1134B7E
:104378001B685BB9B9F1000F02D1FFF76BFF064666
:10438800304601F03FF80021FEF790FB88F31188D2
:10439800BFF36F8F28463946BDE8F88F521A60EB95
:1043A8000C009A45C4E90420ADD01B68AAE7002593
:1043B8002F46EFE73002001040000010D80300102D
:1043C8002DE9F047EFF31185102383F31288BFF32B
:1043D8006F8FDFF8A090DFF8A080C9F80000FFF722
:1043E80031FF00260027D9F80030D8E9002CD9176A
:1043F80050B1D0E9044EA34271EB0E0A1BDAE41A5D
:104408006EEB0106C0E904469B184FF000044CEB24
:1044180001012046C8E90031C9F8004000F0F2FF68
:104428002146FEF743FB85F31188BFF36F8FBDE884
:10443800F047FFF7BBBEA3184CEBE472C0E9046772
:10444800C8E90032FFF710FF85F31188BFF36F8FBB
:1044580083689847EFF31185102383F31288BFF31D
:104468006F8FD9F800301B1BC9F80030FFF7EAFE40
:10447800B9E700BFD80300103002001010B5EFF301
:104488001184102383F31288BFF36F8FFFF7E2FEC6
:10449800054B0146D3E90003081843EBE17184F3A7
:1044A8001188BFF36F8F10BD30020010014800F073
:1044B80006B800BFE96300007047002070470FB4DA
:1044C80007B504A951F8040B0191FCF725FB03B0CB
:1044D8005DF804EB04B07047044608B50846114679
:1044E8001A46A047FFF766FDFDF77EF92DE9F84F5C
:1044F8009A46D3786F2B814688461546A3F1410B1F
:1045080029D024D8582B14BF0A2610260A9F3246D1
:10451800002348464146FCF739F9092A07F1FF37D5
:10452800D4B21DD83034B145E4B278F100033C7000
:1045380001D3574511D82B789B0605D5082E15D1E0
:10454800AB7843F00803AB703846BDE8F88F03F04A
:10455800F703702BD7E70826D8E781468846D6E7C1
:10456800BBF1190F94BF37345734DCE7102EEBD169
:10457800AB7843F01003E6E72DE9F041074688469B
:1045880015461E461446B442A4EB050002D33EB9B4
:1045980023782BB114F8010B4146B8470028F2DA0A
:1045A800BDE8F081704701460068FCF7B9BE08B560
:1045B800FCF7E6FEBDE80840FCF7E6BE0021012056
:1045C800FCF7AEBE6FF08500704761B662B680F347
:1045D8001188BFF36F8F704772B6002383F3118879
:1045E800BFF36F8FBFF34F8F30BF62B6BFF36F8FCC
:1045F8007047202809D9B0F1004F08D80138B0FA1F
:1046080080F0C0F11F0040007047082070473E202E
:104618007047034600201A5C02B970470130FAE778
:1046280010B5431E0A44914200D110BD11F8014B48
:1046380003F8014FF7E7C9B202440346934200D199
:10464800704703F8011BF9E74FF0FF307047FDF79B
:1046580041BB034600201A5C0AB1884200D170476A
:104668000130F8E708B500200621FDF779FB02467E
:1046780001460620FDF71AF9002207210120FDF75F
:104688006FFB11460720FDF711F9002208210220CF
:10469800FDF766FB11460820FDF708F900220921FD
:1046A8000320FDF75DFB11460920FDF7FFF8002206
:1046B8000A210420FDF754FB11460A20FDF7F6F8FD
:1046C800002217210520FDF74BFB11461720FDF7A7
:1046D800EDF8002240210620FDF742FB114640205C
:1046E800FDF7E4F8002241210720FDF739FB1146C8
:1046F8004120FDF7DBF8002242210820FDF730FBBE
:1047080011464220FDF7D2F8002243210920FDF787
:1047180027FB11464320FDF7C9F8002228210A206B
:10472800FDF71EFB11462820FDF7C0F800222A21BC
:104738000B20FDF715FB11462A20FDF7B7F80022DC
:104748004C210C20FDF70CFB11464C20FDF7AEF870
:1047580000224D210D20FDF703FB11464D20FDF7EA
:10476800A5F8002279210E20FDF7FAFA11467920E2
:10477800FDF79CF800227F210F20FDF7F1FA114682
:104788007F20FDF793F8002008BD01F01F010120EC
:104798008840704738B5C40404F4C01444EA90044F
:1047A8000D46FDF7E3FA04F003039B0003F1A04371
:1047B80003F55043240C1A6E0F21A14022EA01028E
:1047C80005FA04F414431C664FF098434FF4007242
:1047D8005A6038BD0B88C3F30B03013B8CB00D2B1B
:1047E80000F28F80DFE803F04007148D8D4B56618F
:1047F8006C1F2A3577824FF0A0424B68C2F8803A86
:10480800D2F8802A13400093009B00200CB0704718
:104818004FF0A0424B68C2F8883AD2F8882A134071
:104828000193019BF1E74FF0A0424B68C2F8903A20
:10483800D2F8902A13400293029BE6E74FF0A04279
:104848004B68C2F88032D2F8802213400393039B4E
:10485800DBE74FF0A0424B68C2F88832D2F88822D2
:1048680013400493049BD0E74FF0A0424B68C2F872
:10487800983AD2F8982A13400593059BC5E74FF05C
:10488800A0424B68C2F8A03AD2F8A02A1340069377
:10489800069BBAE74FF0A0424B68C2F8A83AD2F894
:1048A800A82A13400793079BAFE74FF0A0424B6835
:1048B800C2F89032D2F8902213400893089BA4E7DC
:1048C8004FF0A0424B68C2F89832D2F898221340B1
:1048D8000993099B99E74FF0A0424B68C2F8B03A98
:1048E800D2F8B02A13400A930A9B8EE74FF0A042F1
:1048F8004B68C2F8B83AD2F8B82A13400B930B9B0E
:1049080083E76FF0850081E70B88C3F30B03013B56
:104918000D2B51D8DFE803F026070E50502C323803
:104928003E141A20444A4FF0A0434A68C3F8842A28
:10493800002070474FF0A0434A68C3F88C2AF7E775
:104948004FF0A0434A68C3F8942AF1E74FF0A04318
:104958004A68C3F88422EBE74FF0A0434A68C3F8DB
:104968008C22E5E74FF0A0434A68C3F89C2ADFE7AA
:104978004FF0A0434A68C3F8A42AD9E74FF0A043F0
:104988004A68C3F8AC2AD3E74FF0A0434A68C3F893
:104998009422CDE74FF0A0434A68C3F89C22C7E7AA
:1049A8004FF0A0434A68C3F8B42AC1E74FF0A043C8
:1049B8004A68C3F8BC2ABBE76FF08500704700203F
:1049C800704743685B681B690B6000207047436849
:1049D8005B6800209961704743685B6809049961C6
:1049E8000020704730B50369986810B300248142ED
:1049F8001BD108685CB9DC689860A14200D1D86016
:104A0800002008604AB9002030BD2846EFE7206042
:104A1800D868814208BFDC60F2E79A680A60D86803
:104A280099600028EFD1D960EEE705680446002DAB
:104A3800EBD1002AF1D16FF01500E5E738B54368EE
:104A48005D680C46FDF704FD6B6963406B614FF0D0
:104A580098434FF400721A60002038BD70B543685F
:104A68005E680D461446FDF7F3FC71694C402C4016
:104A78004FF098434C404FF4007274611A60002064
:104A880070BD2DE9F84345680124164688468C40D8
:104A980002F030079946FDF7DBFC6A68C6F380131D
:104AA80022EA040203FA08F313436B60D5F808C03E
:104AB80004FA08F000EB4001C6F3C11343432CEAA3
:104AC800010C43EA0C03AB60EB68C6F3412646438E
:104AD80023EA01031E43202F6FEA0102EE6010D182
:104AE800B8F1070F1AD800FA08F12B6A01FA08F88A
:104AF800C8EB081123EA010308FB09F843EA080395
:104B08002B622B683F091A4047434FF098431743DD
:104B18004FF400722F601A60BDE8F883240A6443DA
:104B2800696A6443C4EB041321EA030104FB09F432
:104B38000C436C62E5E712F4003CF8B506460C46F7
:104B480013461DD0950714D550075FD55022D906B6
:104B580011D542F4007203F4C061B1F5806F4AD0F8
:104B6800B1F5C06F1BD0B1F5007F1AD142F08002B9
:104B780017E01022EBE79F06EDD542F48062EAE7E2
:104B8800D50307D5D00607D412F0200218BF4FF47A
:104B98008062E0E73022DEE74FF40072DBE742F4A0
:104BA800C07213F44035376908D0386920FA04F127
:104BB800C9075FBF0121A14001433961BCF1000F62
:104BC80006D018031AD5716801234968A3408B6180
:104BD800706800232146FFF754FFD5B93B6923FAD3
:104BE80004F2D20705D5012101FA04F423EA0403EB
:104BF8003B6128460CE042F48072D2E75903E7D5BE
:104C08000121A1403046FFF7E7FEE1E76FF085009C
:104C1800F8BD0020FCE770B50B468968054659B118
:104C28005E680C688A682A4002D04B68304698470C
:104C380014B121462468F5E770BDF8B51F4604464F
:104C480040680E461546FFF71CFF112F07D10121BA
:104C58002B0501FA06F104D563685B6899610020A9
:104C6800F8BD2046FFF7B8FEF9E730B503681360D2
:104C780005790468136804EBC504A34202D36FF0F6
:104C8800010030BD5C798C4201D00833EFE7002089
:104C9800F7E74368C1F34B101B6801F01F01C058C8
:104CA800012303FA01F1014208BF00231370002019
:104CB800704710B54368C1F34B101A6801F01F0123
:104CC8008458012303FA01F121438150002010BDCB
:104CD80010B54368C1F34B401A6801F01F018458AE
:104CE800012303FA01F121438150002010BD38B59A
:104CF80004460D46FFF7DDFF29462046FFF7E8FF8B
:104D0800002038BDB0F5805F07D0B0F1805F09D1D1
:104D180000290CBF022001207047002914BF03207E
:104D280004207047002914BF0220032070474368FD
:104D38001B68D869DA69D107DA69C0F3C00048BFCF
:104D480040F002009207DA6948BF40F004005107BA
:104D5800DA6948BF40F02000D20542BF4FF48072A4
:104D680040F008001A62C10744BF08221A6282078D
:104D780044BF01221A62410744BF02221A62820616
:104D880044BF04221A62704743681A68136843F0E4
:104D980040031360704743681A68136823F04003A0
:104DA8001360704743681A68136843F02003136060
:104DB800704743681A68136823F02003136070472C
:104DC80043681B68D869C0F34010704701207047DA
:104DD8000369C3E902127047026993680BB1D1688D
:104DE8001847704708B5002227201146FCF75EFDDA
:104DF800BDE808402720FCF749BD08B5002252202D
:104E08001146FCF753FDBDE808405220FCF73EBDB3
:104E180037B50269436810681D680C46D96883680D
:104E2800DB687BB101AA984700280BDB2B6823F4C9
:104E380000432B6034B1019B03EB5403B3FBF4F341
:104E48009BB2EB6003B030BD43681B68D869C0F300
:104E58008010704743681B68D86910F080001CBF39
:104E68001868C0F38010704708B50B460169496897
:104E78000968196041680968096801F4C061B1F5F9
:104E8800806F024632D0A1F5C0604142414119719C
:104E980051680968496801F44051B1F5805F27D02D
:104EA800B1F5405F26D0002914BF032101215971B3
:104EB800516809680868096800F0102001F4C061A9
:104EC800FFF720FF987151680968896801F44071FB
:104ED800A1F5407041424141D97152681268926807
:104EE800520444BF0322DA71002008BD0221CEE734
:104EF8000021DCE70221DAE738B543681B680C4675
:104F08001868196800F0102001F4C061FFF7FAFE74
:104F180004281AD0D86910F0800015D0EFF3118159
:104F2800102080F31288BFF36F8F0020151A002D10
:104F380006DDDD692D0603D5255C9D620130F5E7A8
:104F480081F31188BFF36F8F38BD6FF08500FBE7E1
:104F580010B543681B681020DA691206FCD5EFF318
:104F6800118280F31288BFF36F8FDC69240604D4A2
:104F780082F31188BFF36F8FEEE7996282F311888D
:104F8800BFF36F8F10BD43681B68DA69910602D5BD
:104F98001A68920607D4D86910F0400004D018683F
:104FA800C0F3801070470120704738B543681B680C
:104FB8000C461868196800F0102001F4C061FFF76A
:104FC800A1FE042810D000200821151A002D0DDD9F
:104FD800DD69AD060AD55D6A2554DD692D0700F146
:104FE8000100F2D51962F0E76FF0850038BD43681B
:104FF8001B68DA69100744BF08221A62DA69920648
:1050080043BF5B6A0B7000204FF0FF3070474FF0D2
:10501800A043D3F80808C0F3002070474FF0A0431E
:10502800D3F80808C0F3001070474FF0A043D3F836
:105038004001C0F3800070474FF0A043D3F844010B
:10504800C0F340007047C0F30B4303F1A043D3F80B
:10505800C03003EA1023DBB2184370474FF0A04377
:10506800D3F88008C0F3400070474FF0A043D3F84E
:105078009408C0F340007047F8B50546184617462F
:105088000E46FBF7BBF94FF06451FBF70FFA0446E5
:105098003846FBF7B3F901462046FBF7FFF804460C
:1050A8002846FBF7ABF905463046FBF7A7F901465A
:1050B8002846FBF7AFFA01462046FBF7F7F9044606
:1050C8000698FBF79BF901462046FBF7A3FAFBF786
:1050D8003DFBF8BD1FB54FF0A043D3F8FC3813F0E3
:1050E800030305D0012B0CD0002005B05DF804FBAC
:1050F800FFF7BBFF0028F7D001A8FDF76BFE01986A
:10510800F3E7FFF7ABFF0028EED001A8FDF7E0FDBD
:105118000298EAE708B54FF0A043D3F8183903F02E
:105128000303012B07D0022B0CD013B9FFF77DFF27
:1051380078B900200CE0FFF77FFF0028F9D04FF482
:10514800FA4005E0FFF76AFF0028F2D048F21200A3
:1051580008BD4FF40040FBE71FB54FF0A043D3F85C
:105168002439DB0709D5FFF780FF18B101A8FDF73F
:1051780031FE019805B05DF804FB4FF0FF30F9E708
:105188001FB54FF0A043D3F8283903F00303012BD0
:105198000ED0022B12D013B9FFF767FF08B9002011
:1051A80003E001A8FDF716FE039805B05DF804FBBF
:1051B800032005B05DF804EBFDF76CBFFFF74EFF69
:1051C8000028ECD001A8FDF783FD0298EDE71FB594
:1051D800FFF74BFF18B101A8FDF7FCFD029805B0D9
:1051E8005DF804FB4FF0A0431B6B03F0070301338A
:1051F800B0FBF3F070471FB54FF0A043D3F8000998
:1052080000F00300022818D003281FD0012808D076
:10521800FEF760F8FFF7E6FF05B05DF804EBFFF76F
:10522800E1BFFFF71BFF18B9002005B05DF804FBCC
:1052380001A8FDF74DFD0398F7E7FFF716FF0028D3
:10524800F2D001A8FDF7C6FD0198EEE705B05DF8BC
:1052580004EBFDF71FBF1FB54FF0A043D3F80409B7
:1052680000F00300022818D003281FD0012808D016
:10527800FEF730F8FFF7B6FF05B05DF804EBFFF76F
:10528800B1BFFFF7EBFE18B9002005B05DF804FBCD
:1052980001A8FDF71DFD0398F7E7FFF7E6FE0028D4
:1052A800F2D001A8FDF796FD0198EEE705B05DF88C
:1052B80004EBFDF7EFBE704740B1C368587810F0B3
:1052C80001001EBF1878B0FA80F040097047EFF36C
:1052D8001183102383F31288BFF36F8FFEE708B59D
:1052E800FFF7F5FF10B54369044633B90020E268BB
:1052F800537843F00103537010BD98470028F5D048
:105308000028B8BF4042E368FF28A8BFFF201870F4
:10531800EDE7FFF790B9FFF783B908B51024EFF36D
:10532800118384F31288BFF36F8FFFF755F9F6E7FF
:10533800D0E9003213605A600023C0E90033704797
:1053480008B5FFF7F5FF437B23F0020343730023FF
:10535800836008BD10B5EFF31184102383F312881E
:10536800BFF36F8FFEF74EFC84F31188BFF36F8F86
:1053780010BD10B50146EFF31184102383F3128892
:10538800BFF36F8F437B13F0280F0AD183680BB1EB
:10539800FFF7D6FF4B7B23F004034B730846FEF759
:1053A80031FC84F31188BFF36F8F10BD01211838C9
:1053B800FFF7DFBF38B504460D46FEF79BFDB5F194
:1053C800FF3F08BFB4F1FF3F0346204614D013F156
:1053D80009004FEAE37141F100010A2871F1000365
:1053E8000BD36FF00A0383424FF004038B4106D3BB
:1053F8000A220023FBF7CAF938BD0020FCE76FF04A
:105408000040F9E708B50246FEF71CFF70B1D0E985
:1054180004309B1A60EBE272B3F1004F72F10001A5
:1054280004DA002AACBF1846002008BD6FF000401F
:10543800FBE738B50246EFF31185102383F3128892
:10544800BFF36F8F0368ABB1FEF7FCFE044610464E
:10545800FEF70AFF00224FF000438442C0E904230C
:1054680006D1FEF7F7FEFFF7CDFF0021FDF71EFB83
:10547800002001E06FF0150085F31188BFF36F8FEE
:0C54880038BD08B5FEF7FAFF08BD0000B3
:0854940030B3FF7F01000000AE
:10549C00000000003C550000DD1200000000000080
:1054AC00000000005C55000000000000DC5600000D
:1054BC0000000000FC550000000000007C550000BE
:1054CC0000000000BC560000000000009C560000CC
:1054DC00000000007C560000000000005C5600003C
:1054EC00000000003C560000000000001C560000AC
:1054FC0000000000DC55000000000000BC5500005E
:10550C00000000009C5500006D46000000000000EB
:10551C007D23000000000000000000001C5700006C
:10552C0000000000FC5600001D2A000000000000D6
:10553C000C63000000000000205C00006A000010FA
:10554C0000000000C749000000000000000000003F
:10555C00B3630000D45D0000105C000082000010FA
:10556C00000000000000000000000000000000002F
:10557C00EE62000000000000000000006800001057
:10558C00000000000D1F00000000000000000000E3
:10559C00196300007C5D0000EC5B00006C000010E7
:1055AC00940300108D240000000000000000000097
:1055BC0027630000685D0000EC5B00006E000010CB
:1055CC00800300108D24000000000000000000008B
:1055DC0035630000545D0000EC5B000070000010AF
:1055EC006C0300108D24000000000000000000007F
:1055FC0043630000405D0000EC5B00007200001093
:10560C00580300108D240000000000000000000072
:10561C00516300002C5D0000EC5B00007400001076
:10562C00440300108D240000000000000000000066
:10563C005F630000185D0000EC5B0000760000105A
:10564C00300300108D24000000000000000000005A
:10565C006D630000045D0000EC5B0000780000103E
:10566C001C0300108D24000000000000000000004E
:10567C007B630000F05C0000EC5B00007A00001023
:10568C00080300108D240000000000000000000042
:10569C0089630000DC5C0000EC5B00007C00001007
:1056AC00F40200108D240000000000000000000037
:1056BC0097630000C85C0000EC5B00007E000010EB
:1056CC00E00200108D24000000000000000000002B
:1056DC00A5630000B45C0000EC5B000080000010CF
:1056EC00CC0200108D24000000000000000000001F
:1056FC00C4630000505E00003C5C0000840000109D
:10570C00280000104D2700000000000000000000E1
:10571C00D4630000285E00003C5C00008600001092
:10572C00180000104D2700000000000000000000D1
:10573C0000000000C545000000000000C545000049
:10574C0000000000C545000000000000C545000039
:10575C0000000000C545000000000000C545000029
:10576C00CE6200001D1D0000D06200001D1D000057
:10577C00DE6200001D1D0000E06200001D1D000027
:10578C00E26200001D1D000000000000C545000085
:10579C0000000000C545000000000000C5450000E9
:1057AC0000000000C545000000000000C5450000D9
:1057BC0000000000C545000000000000C5450000C9
:1057CC0000000000C545000000000000C5450000B9
:1057DC0000000000C545000000000000C5450000A9
:1057EC0000000000C5450000E46200001D1D000023
:1057FC0000000000C545000000000000C545000089
:10580C0000000000C545000000000000C545000078
:10581C0000000000C545000000000000C545000068
:10582C0000000000C545000000000000C545000058
:10583C0000000000C545000000000000C545000048
:10584C0000000000C545000000000000C545000038
:10585C0000000000C545000000000000C545000028
:10586C0000000000C54500001C570000E14D000081
:10587C00D26200001D1D000000000000C5450000A4
:10588C00D46200001D1D000000000000C545000092
:10589C0000000000C545000000000000C5450000E8
:1058AC0000000000C545000000000000C5450000D8
:1058BC0000000000C545000000000000C5450000C8
:1058CC0000000000C545000000000000C5450000B8
:1058DC0000000000C545000000000000C5450000A8
:1058EC0000000000C545000000000000C545000098
:1058FC0000000000C545000000000000C545000088
:10590C0000000000C545000000000000C545000077
:10591C0000000000C545000000000000C545000067
:10592C0000000000C545000000000000C545000057
:10593C00E66200001D1D0000E86200001D1D000055
:10594C00EA6200001D1D0000EC6200001D1D00003D
:10595C0000000000C545000000000000C545000027
:10596C0000000000C545000000000000C545000017
:10597C0000000000C545000000000000C545000007
:10598C0000000000C545000000000000C5450000F7
:10599C00D66200001D1D0000D86200001D1D000015
:1059AC0000000000C545000000000000C5450000D7
:1059BC0000000000C545000000000000C5450000C7
:1059CC00FC560000E14D000000000000C545000041
:1059DC0000000000C545000000000000C5450000A7
:1059EC0000000000C545000000000000C545000097
:1059FC0000000000C545000000000000C545000087
:105A0C0000000000C545000000000000C545000076
:105A1C0000000000C545000000000000C545000066
:105A2C0000000000C545000000000000C545000056
:105A3C0000000000C545000000000000C545000046
:105A4C0000000000C545000000000000C545000036
:105A5C0000000000C545000000000000C545000026
:105A6C0000000000C545000000000000C545000016
:105A7C0000000000C545000000000000C545000006
:105A8C0000000000C545000000000000C5450000F6
:105A9C0000000000C545000000000000C5450000E6
:105AAC0000000000C545000000000000C5450000D6
:105ABC0000000000C545000000000000C5450000C6
:105ACC0000000000C545000000000000C5450000B6
:105ADC0000000000C545000000000000C5450000A6
:105AEC0000000000C545000000000000C545000096
:105AFC0000000000C5450000DA6200001D1D00001A
:105B0C0000000000C545000000000000C545000075
:105B1C0000000000C545000000000000C545000065
:105B2C0000000000C5450000DC6200001D1D0000E7
:105B3C0000000000C545000000000000C545000045
:105B4C0000000000C545000000000000C545000035
:105B5C0000000000C545000000000000C545000025
:105B6C0000000000C545000000000000C545000015
:105B7C0000000000C545000000000000C545000005
:105B8C0000000000C545000000000000C5450000F5
:105B9C0000000000C545000000000000C5450000E5
:105BAC0000000000C545000000000000C5450000D5
:105BBC0000000000C545000000000000C5450000C5
:105BCC0000000000C545000000000000C5450000B5
:105BDC0000000000C545000000000000C5450000A5
:105BEC003F4B0000CB490000654A0000D74900003C
:105BFC00E1490000454A0000A5230000ED490000E2
:045C0C000000000094
:105C10009B4C0000BB4C0000D94C0000F74C00002E
:105C2000DD4700001149000000000000F51F0000E2
:0C5C300000000000000000000000000068
:105C3C00F74F0000594F0000374D0000BD28000001
:105C4C00714E0000014F0000B34F0000914D000059
:105C5C009F4D00005D4E0000AD4D0000BB4D00009F
:105C6C00514E0000C94D000049250000AD25000033
:0C5C7C008F4F0000D54D0000D94D0000F6
:105C8800000000100000000000000B0602000000E9
:105C98009C5C000000000000BF6200001E000206BD
:105CA80000000010C762000024000B11FFFF000075
:105CB8000020005000000000070000000100000064
:105CC800FFFF000000300050010000000700000046
:105CD80002000000FFFF000000400050020000002A
:105CE8000700000004000000FFFF00000050005003
