:1000000000160010751000009744000061100000F9
:10001000611000006110000061100000000000008D
:10002000000000000000000000000000351100008A
:100030006110000000000000D51000004D230000FA
:10004000BD120000BD120000BD120000BD12000074
:10005000BD120000BD120000BD120000BD12000064
:10006000BD120000BD120000BD120000BD12000054
:10007000BD120000BD120000BD120000BD12000044
:1002980080F0004002E000BF81F0004142001FBF33
:1002A8005FEA410392EA030F7FEA226C7FEA236C3C
:1002B8006AD04FEA1262D2EB1363C1BFD218414031
:1002C80048404140B8BF5B42192B88BF704710F0C7
:1002D800004F40F4000020F07F4018BF404211F06A
:1002E800004F41F4000121F07F4118BF494292EAD2
:1002F800030F3FD0A2F1010241FA03FC10EB0C00FE
:10030800C3F1200301FA03F100F0004302D549428A
:1003180060EB4000B0F5000F13D3B0F1807F06D337
:1003280040084FEA310102F10102FE2A51D2B1F12F
:10033800004F40EBC25008BF20F0010040EA030024
:100348007047490040EB0000013A28BFB0F5000FA4
:10035800EDD2B0FA80FCACF1080CB2EB0C0200FA5A
:100368000CF0AABF00EBC25052421843BCBFD040A9
:100378001843704792F0000F81F4000106BF80F423
:1003880000000132013BB5E74FEA41037FEA226CE6
:1003980018BF7FEA236C21D092EA030F04D092F0B1
:1003A800000F08BF0846704790EA010F1CBF0020E5
:1003B800704712F07F4F04D1400028BF40F0004042
:1003C800704712F100723CBF00F50000704700F062
:1003D800004343F0FE4040F4000070477FEA226289
:1003E80016BF08467FEA23630146420206BF5FEA5A
:1003F800412390EA010F40F4800070474FF000035A
:1004080004E000BF10F0004348BF40425FEA000C20
:1004180008BF704743F0964301464FF000001CE0C8
:1004280050EA010208BF70474FF000030AE000BF1E
:1004380050EA010208BF704711F0004302D540425C
:1004480061EB41015FEA010C02BF844601460020CE
:1004580043F0B64308BFA3F18053A3F50003BCFAE9
:100468008CF2083AA3EBC25310DB01FA02FC634496
:1004780000FA02FCC2F12002BCF1004F20FA02F29D
:1004880043EB020008BF20F00100704702F1200290
:1004980001FA02FCC2F1200250EA4C0021FA02F2F1
:1004A80043EB020008BF20EADC7070474FF0FF0CF6
:1004B8001CEAD0521EBF1CEAD15392EA0C0F93EAF1
:1004C8000C0F6FD01A4480EA010C400218BF5FEA93
:1004D80041211ED04FF0006343EA501043EA511106
:1004E800A0FB01310CF00040B1F5000F3EBF490000
:1004F80041EAD3715B0040EA010062F17F02FD2A04
:100508001DD8B3F1004F40EBC25008BF20F00100E6
:10051800704790F0000F0CF0004C08BF49024CEAFD
:10052800502040EA51207F3AC2BFD2F1FF0340EA8F
:10053800C250704740F400004FF00003013A5DDC00
:1005480012F1190FDCBF00F000407047C2F1000241
:10055800410021FA02F1C2F1200200FA02FC5FEA2E
:10056800310040F1000053EA4C0308BF20EADC7078
:10057800704792F0000F00F0004C02BF400010F4EA
:10058800000F013AF9D040EA0C0093F0000F01F097
:10059800004C02BF490011F4000F013BF9D041EAB9
:1005A8000C018FE70CEAD15392EA0C0F18BF93EABB
:1005B8000C0F0AD030F0004C18BF31F0004CD8D1E5
:1005C80080EA010000F00040704790F0000F17BF6C
:1005D80090F0004F084691F0000F91F0004F14D0B2
:1005E80092EA0C0F01D142020FD193EA0C0F03D10A
:1005F8004B0218BF084608D180EA010000F000400D
:1006080040F0FE4040F40000704740F0FE4040F4E7
:10061800400070474FF0FF0C1CEAD0521EBF1CEA86
:10062800D15392EA0C0F93EA0C0F69D0A2EB0302A4
:1006380080EA010C49024FEA402037D04FF080533E
:1006480043EA111143EA10130CF000408B4238BF03
:100658005B0042F17D024FF4000C8B4224BF5B1A11
:1006680040EA0C00B3EB510F24BFA3EB510340EA5F
:100678005C00B3EB910F24BFA3EB910340EA9C000D
:10068800B3EBD10F24BFA3EBD10340EADC001B017D
:1006980018BF5FEA1C1CE0D1FD2A3FF650AF8B4221
:1006A80040EBC25008BF20F0010070470CF0004C2E
:1006B8004CEA50207F32C2BFD2F1FF0340EAC25059
:1006C800704740F400004FF00003013A37E792F01A
:1006D800000F00F0004C02BF400010F4000F013A78
:1006E800F9D040EA0C0093F0000F01F0004C02BF73
:1006F800490011F4000F013BF9D041EA0C0195E7DC
:100708000CEAD15392EA0C0F08D142027FF47DAF74
:1007180093EA0C0F7FF470AF084676E793EA0C0F64
:1007280004D14B023FF44CAF08466EE730F0004C62
:1007380018BF31F0004CCAD130F000427FF45CAFF2
:1007480031F000437FF43CAF5FE700BF42000ED2B8
:10075800B2F1FE4F0BD34FF09E03B3EB126209D4F4
:100768004FEA002343F0004323FA02F070474FF0AA
:100778000000704712F1610F01D1420202D14FF01F
:10078800FF3070474FF00000704700BF53B94AB9B7
:10079800002908BF00281CBF4FF0FF314FF0FF3081
:1007A80000F00CB8ADF1080C6DE904CE00F008F8C3
:1007B800DDF804E0DDE9022304B07047704700BFAC
:1007C8002DE9F04786468C460846089E154674462D
:1007D8001946002B40F0C2808542B2FA82F245D910
:1007E8004AB1C2F1200300FA02FC2EFA03F3954045
:1007F80043EA0C0C94404FEA154EA8B2BCFBFEF835
:10080800230C0EFB18CC08FB00F943EA0C4399456E
:1008180028D9EB1808F1FF3704D2994502D9A8F175
:1008280002072B44A3EB0903A4B2B3FBFEFC0EFBA7
:100838001C330CFB00F044EA0344A04214D92C19E1
:100848000CF1FF3304D2A04202D9ACF102032C44CC
:10085800241A43EA07401EB1D44000233460736071
:10086800BDE8F0874746DDE76346F1E792BB431BE7
:1008780001214FEA154EAFB2B3FBFEFC200C0EFB74
:100888001C330CFB07F840EA0343984562D9EB1880
:100898000CF1FF3004D2984502D9ACF102002B4488
:1008A800A3EB0803A4B2B3FBFEFC0EFB1C330CFB4A
:1008B80007F744EA0344A7424ED92C190CF1FF3339
:1008C80004D2A74202D9ACF102032C44E41B43EA48
:1008D8000040C0E7C2F1200320FA03F195409040A0
:1008E8002EFA03F303434FEA154EAFB2B1FBFEFCF9
:1008F8000EFB1C10190C0CFB07F841EA0041884557
:1009080004FA02F422D969180CF1FF3004D28845A0
:1009180002D9ACF102002944A1EB08019BB2B1FB5A
:10092800FEFC0EFB1C110CFB07F743EA01439F4238
:100938000ED9EB180CF1FF3104D29F4202D9ACF169
:1009480002012B44DB1B41EA004192E76046E3E7E2
:100958006146F7E76046A3E76346B7E7834206D9EF
:1009680016B9002108467BE7C6E900E0F9E7B3FAC3
:1009780083F78FB9834201D3724508D8BEEB0204CE
:1009880060EB030301209C461EB9002168E7384646
:10099800FAE7C6E9004CF8E7C7F1200CBB4022FA99
:1009A8000CF41C432EFA0CF120FA0CF3B840014366
:1009B8004FEA14490EFA07F5B3FBF9F81FFA84FE5B
:1009C80009FB18300B0C08FB0EFA43EA00439A4562
:1009D80002FA07F240D9E31808F1FF3004D29A4529
:1009E80002D9A8F102002344A3EB0A0389B2B3FB9E
:1009F800F9F809FB183308FB0EFE41EA03418E455E
:100A08002CD9611808F1FF3304D28E4502D9A8F118
:100A18000203214443EA0040A0FB0298A1EB0E0127
:100A28004145CE46434602D306D14D4504D2B9EBE3
:100A3800020E68EB04030138002EA6D0B5EB0E02B7
:100A480061EB030101FA0CFC22FA07F34CEA0303F9
:100A5800F940C6E9003198E74046C5E74346D9E77B
:100A6800F8B5174D284604F075FB044630B32A69DB
:100A7800A968136823F0800313600B684FF42022E1
:100A8800072128469847002818DB0E4F0E4EAB6802
:100A980080215B692846984700280FDB84F0010411
:100AA80014F0FF0414BF39463146084803F08CF9A6
:100AB800002142F2107004F0CBFBE8E70020F8BDFB
:100AC8009C5500003A5E00003D5E0000415E00005B
:100AD800014B1B68184700BF00000010014B18604D
:100AE800704700BF0000001030B585B004460D46C1
:100AF80010220021684604F024FC02238DF80230FD
:100B08002A46044B01932146684603F06FF905B065
:100B180030BD00BFD90A000080B505460E4617460D
:100B2800984602F0CDFE034604F076FCDFF81890F4
:100B3800044649F80030424630463946A84754F83A
:100B4800090000F0ADFA00BF08000000034A53682E
:100B580023F0020353600020704700BF00100850C4
:100B68004FF0A0434FF40062C3F8A02AD3F8A03A8C
:100B780082B013400193019B024A034B1A6002B0F2
:100B8800704700BF4016750C44000010014B03600D
:100B980000207047285C000038B505460C4699B11E
:100BA800D1E901230F48096803F05FFCD4E9042365
:100BB800E1680D4803F059FCE1690C4803F055FC65
:100BC800A1690B4803F051FC012D05D1EFF3058114
:100BD8000848103903F049FC21462846BDE838404A
:100BE80002F0F4BA505E0000805E0000B05E0000C3
:100BF800C05E0000EF5E000030BFFFF7FDBF00BF22
:100C08002DE9F0410B4EDFF8308006EB0807CC1BCE
:100C1800054632460949204604F085FBA01942469C
:100C28000021083C04F08DFB2C6707F10800BDE8A3
:100C3800F08100BF0000000004000000285C0000F4
:100C4800054B5A699B689A421FBF044A536843F090
:100C580080535360704700BFD403001000ED00E0DC
:100C68002DE9F843324D804632488946174603F04D
:100C7800FCFBAB6ADE0622D52F4803F0F6FB1124F5
:100C8800AB6A1D0703D52D4803F0EFFB1224284D4E
:100C9800AB6A980715D52A4803F0E7FB6E6BAB6A79
:100CA800190642D52748314603F0DFFBB9F1000F9A
:100CB80003D0AB6A23F08003AB62132403E0102453
:100CC800DEE76FF015061A4DAB6ADA0703D51E4842
:100CD80003F0CBFB1424AB6A9B0603D51B4803F037
:100CE800C4FB1524124B9A6AD50602D49A6A900757
:100CF8000AD55B68190507D54146304600F094FAD5
:100D080010B180F309880224094B9A6A920642BFFF
:100D18005A6A22F400525A629A6A42F0FF029A62B0
:100D280000233B702046BDE8F8836FF01506C4E742
:100D380000ED00E0035F00001A5F00004E5F000056
:100D4800625F00007B5F0000925F0000B25F0000FE
:100D580010B51D4C1D4803F088FBA36A990130D5D6
:100D68001B4803F082FB1E20A36ADA0103D5194849
:100D780003F07BFB1F20144CA36A1B0303D5164802
:100D880003F073FB2120A36A590303D5134803F02A
:100D98006CFB22200C4CA36A9A0303D5104803F07D
:100DA80064FB2320A36ADB0303D50E4803F05DFB35
:100DB8002420054A936A6FEA03436FEA1343936258
:100DC80010BD1D20D0E700BF00ED00E0E25F00008D
:100DD800FB5F00000F6000002A600000496000000F
:100DE8006F6000008A60000070B5244C06462448F5
:100DF8000D4603F03AFBA36AD90435D5214803F020
:100E080034FB1720A36A1A0503D51F4803F02DFBEE
:100E180018201A4CA36A9B050FD51C4803F025FB24
:100E2800A16BA36A180407D5194803F01EFB1EB16D
:100E3800A36A23F40043A3621920104CA36A59053E
:100E480003D5144803F011FB1A20A36ADA050DD55F
:100E5800114803F00AFB1B20084A936A43F47F43B6
:100E6800936200232B7070BD1620CBE7A36A9B0406
:100E7800F2D50A4803F0F9FA1C20EDE700ED00E08E
:100E8800B6600000CD6000004E5F0000DF6000002B
:100E9800F96000000F6100002B610000B25F0000E4
:100EA8002DE9F0415B4B5F688AB00446C7F308063A
:100EB800002585F31188BFF36F8F02F07F43B3F1EC
:100EC8007F4F06D102F00C03082B13D1524803F0D0
:100ED800CCFA00252C464FF00008F31E8DF8078049
:100EE800092B00F28680DFE803F00A7A7E76848494
:100EF8008484848210074CBF0C460125EBE74748E1
:100F0800444E03F0B2FA8DF80780F36A9A0704D5C5
:100F1800434803F0AAFA002330E0F36A002B01DA11
:100F28004048F6E7F36A5B00F5D53F4803F09DFAC1
:100F38007369A26943F480737361BFF34F8FBFF382
:100F48006F8F736932F8022C23F480737361BFF3D7
:100F58004F8FBFF36F8F4DF602739A4209D0B36A71
:100F6800DBB253B30DF1070201212046FFF778FEEB
:100F780033E021682D4803F078FA23689DF80720AC
:100F8800C2B902AE04F1200720686168324603C284
:100F98000834BC421646F7D1099AB5B3C2F3080122
:100FA80021B96FEA52226FEA4222099202A9184631
:100FB800FFF7F2FD0AB0BDE8F081B36A13F47F4F82
:100FC80005D00DF107010120FFF70EFF05E0B36A18
:100FD800B3F5803F9FD3FFF7BBFE0346CEE70DF185
:100FE80007020021C1E70DF107010020ECE71048D6
:100FF8008FE7104B1049114817F4F87FA6F110023B
:1010080018BF194603F031FA85E722F4FF7222F07F
:101018000102CAE700ED00E0726100009E61000075
:10102800B6610000D8610000E761000007620000B7
:101038002462000059610000446100004962000018
:10104800044B5A6942F010025A615A6922F00802A8
:101058005A61704700ED00E0EFF30880EFF3098173
:1010680001B57246FFF71CFF01BD00BF0A4880F3B7
:101078000888102080F3118808484FF4046140184C
:1010880080F30988EFF314800221084380F3148861
:10109800BFF36F8F00F090F80016001040080010A2
:1010A800084B9B6883420BD1EFF3058343B1064B92
:1010B8005A6842F080525A605A6A22F400425A62D0
:1010C80002F004BCD403001000ED00E014498A6863
:1010D8004FF030001044EFF3098C80E8F01F102027
:1010E80080F31288BFF36F8F0E4F4FF000664A6986
:1010F8008A603E60106F0C4C2060506F002353676D
:1011080080F3118804B5104600F0F2F8BDE80440F9
:1011180002F1300090E8F01F8CF309887047000056
:10112800D403001004ED00E0480200101EF0040F84
:101138000CBFEFF30880EFF30980816911F8021CF6
:101148000229FFD001B5724603F09DF901BD00BF29
:1011580000B2002807DB044A4109012300F01F0000
:10116800834042F82130704700E100E000B20028D7
:10117800A8BF00F1604001F10101B8BF064B4FEA7A
:101188000111ACBF00F5614000F00F00C9B2B4BF57
:10119800195480F80013704714ED00E0044B054A19
:1011A80023F07F039360BFF34F8FBFF36F8F7047B8
:1011B8000000000000ED00E008B5FFF7EFFF0B4A64
:1011C800D2F8883023F47003C2F88830EFF3148320
:1011D80023F0040383F31488BFF36F8F02F086F8BB
:1011E80002F09AFC00F05AF802F0C4F800ED00E0B2
:1011F80042F8203C009B42F81C3C0A49019B42F8FB
:10120800183C029B42F8143C21F001014FF0807316
:1012180042F8043C42F8081C0023203A0265436760
:10122800704700BF210B0000094A0346906870B15F
:1012380013F1160F006E05D0A0F140029A4205D8AE
:10124800834203D2814228BF0020704700207047A4
:10125800D403001008B515460B4A0C4B9060026F7A
:101268001A600E4600F044F82C4686F309880020E0
:10127800034B98472046002100220023014C2047B9
:10128800B3440000210B0000D403001048020010F2
:10129800014B10221A61704700ED00E0044800235A
:1012A8001021C2180133962B82F80013F9D1704728
:1012B80000E100E008B5EFF30583064A103B02EBB6
:1012C800C30152F8330049688847BDE80840FFF772
:1012D800B7BC00BFDC560000024B034A034801219B
:1012E80000F076B80000051000000010285C00002F
:1012F800026E054B403A1A60044A4021C3E90112C4
:101308001846012100F06EB84C02001000000B15C1
:10131800084AC2F898000B6823F01F03034343F000
:101328001003C2F89C308B6843F00103C2F8A03068
:10133800704700BF00ED00E02DE9F043DFF8608062
:1013480085B00E461F4604464FF00009B14523DA22
:101358006068D8B13FB1411E08421BD11F2819D976
:101368002368194216D12368019303F0B2F8A368E1
:1013780003430393D8F89050C5F30725D0B2013D35
:10138800A84207D801A9FFF7C3FF421C09F10109C8
:101398000C34DBE76FF01502104605B0BDE8F083AA
:1013A80000ED00E0044B0522C3F89420BFF34F8FF3
:1013B800BFF36F8F704700BF00ED00E0BFF35F8F92
:1013C800024B0022C3F89420704700BF00ED00E0F4
:1013D80010B5034C01232278FFF7AEFF207010BD33
:1013E8000004001008B50B4A00231278FFF7A4FF89
:1013F80010F1160F07D0084A0021D2F89030C3F335
:101408000723984200DB08BDC2F89800C2F8A01074
:101418000130F2E70004001000ED00E02DE9F04390
:10142800534B544CD3F890302568C3F307239D429F
:1014380085B000F29A80FFF7C1FF00200C26854294
:101448001AD14D4C4D4F25706846FFF79FFBDFF8CA
:101458002081DFF82C9106460025AE4213D123786F
:1014680043490020D1F89020C2F30722934276DB4B
:10147800FFF798FF002042E0616806FB0011FFF7C4
:1014880047FF0130DBE7009800EB05114FEA051C28
:10149800CB683B40B3F5000F48D00AD8B3F5001F1E
:1014A80030D0B3F5800F36D0B3F5801F10D001359A
:1014B800D3E7B3F1807F42D0B3F1007FF7D150F882
:1014C8000C3088684A6803F004F840F4802009E08A
:1014D80050F80C3088684A6802F0FBFF40F08850EA
:1014E80040F43020CDE901230390D8F890302078DB
:1014F800C3F30723013B98422AD96FF0150005B0C2
:10150800BDE8F08350F80C3088684A6802F0E1FFC3
:1015180040EA0900E6E750F80C3088684A6802F0AB
:10152800D8FF40F0C06040F40030DBE750F80C30E2
:1015380088684A6802F0CDFF40F08270D2E750F820
:101548000C3088684A6802F0C4FF40F08870C9E728
:1015580001A9FFF7DDFE237801332370A7E7C1F85F
:101568009830C1F8A00001337CE74FF0FF30C6E7A0
:1015780000ED00E0345C0000000400100000F0FF03
:101588000000081108B5024B1B689847002008BDE9
:1015980058020010034B044A1860937843F0020382
:1015A80093707047580200100400001008B50649EF
:1015B800064821F00701C1F1805202F5A02202F08D
:1015C800FAFE002008BD00BF471600105C0200109C
:1015D8002DE9F843124F06464FF000094FF0010875
:1015E800347854FA89F5284600F00AF970B128468B
:1015F80000F038F957F8353043B107EBC5054C44CE
:1016080004F01F04696808FA04F09847727809F131
:1016180001095FFA89F39A42E2D2BDE8F88300BF74
:1016280068020010014B23F8101070475400001096
:1016380010B50B494FF480134FF09842D2F884004C
:1016480088420BD0581CF9D0013BF7D183F311889D
:10165800BFF36F8F0424204602DFEFE710BD00BF01
:1016680000020080034678B1B0FA80F2C2F11F028E
:10167800D2B2064931F91200054AD2F8C0100B431C
:10168800C2F8C030FFF764BDFF22F2E75400001033
:1016980000D00050034AD2F8C03023EA0003C2F851
:1016A800C030704700D0005038B50D460446FFF7EB
:1016B800BFFF032D0CD8DFE805F00211151E124BF1
:1016C8001A6822EA04021A605A6822EA04025A6076
:1016D8004FF098434FF400725A6038BD0A4B1A68AD
:1016E8002243F0E7084B5A6822435A601A6822EAF4
:1016F80004021A60ECE7044B1A6822431A605A681D
:1017080014435C60E4E700BF00D0005030B5B0B1CE
:10171800B0FA80F3C3F11F03DBB20B4850F8334033
:101728008C4204D100EBC3056D68954205D044B9DD
:1017380040F8331000EBC3004260002030BDFF23A7
:10174800EBE76FF00F00F9E76802001060B1B0FA3C
:1017580080F3C3F11F03DBB2044A002142F83310BF
:1017680002EBC30251607047FF23F5E768020010DF
:10177800C300C0F381001830054A52F8202003F056
:1017880018000F238340134023FA00F0704700BF6E
:1017980000D0005010B50B494FF480134FF0984219
:1017A800D2F8840088420BD0581CF9D0013BF7D1FD
:1017B80083F31188BFF36F8F0424204602DFEFE71D
:1017C80010BD00BF0002008013B50C4C204603F08A
:1017D800C1FC60B14FF400630A22CDE90023A3687D
:1017E8001B683BB169462046984702B010BD6FF0B0
:1017F8001200FAE76FF05700F7E700BFDC5400006B
:101808005F2870B5064629D800F01F050124FFF7A8
:10181800C1FF1F2E04FA05F510D8114BDA6835EA16
:10182800020217D01B699D4308BF204618BF00203D
:101838004FF098434FF400725A6070BD3F2E0BD999
:10184800074BDA6C35EA020204D01B6D9D4308BFD2
:101858000120EBE72046EBE70020E9E70020ECE772
:1018680000D0005038B55F2800F01F034FF0010486
:10187800054604FA03F413D8FFF78CFF1F2D09D887
:10188800094BDC601C614FF098434FF400725A60BA
:10189800002038BD3F2D82BF034BDC641C65F2E796
:1018A8006FF01500F5E700BF00D0005038B50B8881
:1018B800C3F30B03013B0D4614460B2B21D8DFE87D
:1018C80013F011010C0081002000200027012000E6
:1018D8002F013501C400DA00EE004B68B3F5003F74
:1018E8005FD038D8B3F5006F57D023D8B3F5807FD1
:1018F80010D018D8202B11D8032B05D8013B012B69
:1019080008D96FF085005CE0974A043B22FA03F39C
:10191800DA07F6D5954801F087F94BE0402BF9D066
:10192800802BF7D0EDE7B3F5007FEAD1904801F0BE
:10193800B3F93FE0B3F5004F33D009D8B3F5805F72
:101948002BD0B3F5804FDCD18A4801F09DFB31E004
:10195800B3F5803FF7E7B3F1807F12D013D8B3F522
:10196800001F20D007D8B3F5802F02D0B3F5002F81
:10197800C7D18148E9E7B3F5800F14D0B3F5000F5C
:10198800BFD17E4810E0B3F1806F10D0B3F1006F83
:10199800B7D1032003F00BFB0CE0794801F0CEFA35
:1019A80008E07848D1E7784801F052FA02E00320CD
:1019B80000F036FF20602B68B3F5805F80F0178158
:1019C800002038BD4B68B3F5803F34D01CD8B3F540
:1019D800007F2ED00FD8102B08D8002B91D06B4A3F
:1019E80022FA03F3DB078CD5694894E7B3F5807FC7
:1019F80087D16848D2E7B3F5806F1AD0B3F5005F96
:101A08007FF47FAF6448A0E7B3F5801F19D008D8EA
:101A1800B3F5003F13D0B3F5802F7FF472AF5F4862
:101A28000AE0B3F1807F7FF46CAF032000F0C8FEBA
:101A3800C0E75B48B2E75B4800F0CAFFBAE75A481C
:101A4800FAE7584801F04CF8B4E74B68082B0AD07D
:101A58000BD8022B04D8002B3FF453AF534866E74A
:101A6800042B7FF44EAF524861E7B3F5807F7FF4D3
:101A780048AF5048E0E74B68102B08D0B3F5803FDB
:101A880009D0012B7FF43DAF03F0EFFA92E7012074
:101A980003F0B0FA8EE7032000F0F0FE8AE74B6807
:101AA800102B19D008D8042B13D0082B11D0012BD8
:101AB8007FF427AF404871E7B3F5801F0ED0B3F528
:101AC800001F0BD0B3F5807F7FF41BAF01F03EF809
:101AD80070E74FF4E06067E7384836E7032000F026
:101AE800DFFF67E74B68B3F5807F09D0B3F5803F28
:101AF8000AD0202B7FF405AF032003F08FFA59E7B3
:101B0800102000F0E5FE55E72D4801F047F951E7B0
:101B18004B68402B7FF4F5AE2A4800F0EFFE49E70A
:101B28004B68402B7FF4EDAE2748F6E74B68B3F5DA
:101B3800804F58D04AD8B3F5805F50D03FF6E1AE19
:101B4800B3F5007F06D009D8802B03D0B3F5807F8A
:101B58007FF4D7AE032003F00AFA2BE7B3F5806FC2
:101B6800F8D0B3F5006FF3E7111000100001680713
:101B78000007740800072808000730080007040851
:101B880000071C0800072C080007000816010100C0
:101B980000016C0700071808000724080007100850
:101BA800000720080007080800070C08000770084D
:101BB80000076C0800071408000704000007080065
:101BC800000738080003600800030C00B3F5803FE5
:101BD80003D0B3F5003F7FF494AE084895E703209F
:101BE80003F087FAE6E6032003F053FAE2E6C3F3CC
:101BF80013330133B0FBF3F02060E1E6000734084B
:101C08000749084A0B681268D054013340F2FF3282
:101C180093FBF2F2C2EB82229B1A0B60704700BF63
:101C2800E8020010EC02001010B5064C064B074AFB
:101C38001A602046FEF752FF2046FFF7ABFC002053
:101C480010BD00BF091C0000EC02001001040010C8
:101C58002DE9F843D0F80480D0F81090D8F808009F
:101C680017460D461E4602F0DCFCB7F5001F044679
:101C780016D12846D8F80840FFF77AFD84420CD1DF
:101C8800294602F0CEFC0446FFF704FD2046FFF784
:101C98005DFD00212046FFF707FD0020BDE8F88321
:101CA800B7F5800F20D0B6F1806F19D0B6F1C06FAC
:101CB80018D0B6F1007F1AD1022610494A462046AC
:101CC800FFF724FDB0B9D8F80810284602F0AEFC9A
:101CD80020463146FFF7E8FC2046FFF7C3FCDCE767
:101CE8000126EAE70326E8E76FF08500D6E76FF0FC
:101CF8001500D3E76FF00F00D0E700BFA74A000038
:101D080010B50B494FF480134FF09842D2F8800079
:101D180088420BD0581CF9D0013BF7D183F31188C6
:101D2800BFF36F8F0424204602DFEFE710BD00BF2A
:101D38000002008038B50369044658600A4D2846F9
:101D480003F008FA60B1AB6861681B680C3123B115
:101D58002846984700EAE07038BD6FF05700F9E769
:101D68006FF01200F8E700BFDC5400002DE9F047DF
:101D78001E4F044600EBC1060025B44201D10020E5
:101D880014E02068C30600F01F0911D4656845F007
:101D98002005C0F3481AC0F34420102823D857F868
:101DA8002080B8F1000F0DD16FF01200BDE8F08768
:101DB800B9F1100F04D0B9F1110FEAD16568E8E75D
:101DC8003025E6E7404603F0C5F90028ECD04B463D
:101DD8002A460AF00F01404602F077FE002804F177
:101DE8000804CADAE2E76FF01500DFE7345D0000A7
:101DF80043681B689A68B3F1B84F42F001029A60D1
:101E080018D0114A934215D002F58052934211D04E
:101E180002F5805293420DD002F58052934209D0C8
:101E28000A4A934206D00A4A934203D002F58052E6
:101E3800934203D15A6842F040025A601A6842F449
:101E480080721A60704700BF00E000400030004414
:101E58000080014043681B689A68B3F1B84F22F0CC
:101E680001029A6018D0114A934215D002F58052A7
:101E7800934211D002F5805293420DD002F5805260
:101E8800934209D00A4A934206D00A4A934203D0A1
:101E980002F58052934203D15A6822F040025A60F8
:101EA8001A6822F480721A60704700BF00E0004090
:101EB8000030004400800140F8B503690C465D68B5
:101EC80023794168012B16D09F1E7E427E41B602BF
:101ED8006279022A9CBF454F37F81270A27988BFF1
:101EE8004FF40057022A09D0042A2FD0003B18BF0C
:101EF80001231B0306E04FF4C066E9E7B3FA83F356
:101F08005B091B07E2790968012A14BF4FF0000C2E
:101F18004FF4407CA5421CD10A6822F0805222F47A
:101F2800B05232431A430A604B6823F440533B4390
:101F38004B6043681A68936823F4407343EA0C03C0
:101F480093602968BDE8F84002F0A7BE4FF48053BB
:101F5800D8E7D1F800E00EF4C06E76451FBFD1F87F
:101F680000E02EF4C06E4EEA06060E6041680E6868
:101F7800716801F440518F421FBF716821F44051CC
:101F88003943716041680E68316801F010218B4255
:101F98001FBF316821F010210B4333604368196873
:101FA8008B6803F440739C451FBF8B6823F4407310
:101FB80043EA0C038B6043681B689968490405D59C
:101FC800032A09D09A6822F4804204E0032A03D144
:101FD8009A6842F480429A6021682B68994203D03B
:101FE80002F05BFE23682B60F8BD00BF345E000082
:101FF8002DE9F3410469476806465548206003F017
:10200800A9F820B96FF0120002B0BDE8F08120688D
:10201800F96883681B68002B00F0948098470028B3
:10202800F2DB386A01AA002102F067FD0028EBDB29
:10203800019B002219791868FFF798FE0028E3DB56
:10204800756833692C68D3F80480236823F001038A
:102058002360686803F07EF80028D3D0D5E9010131
:102068008368DB6803B19847236843F00C03236057
:1020780041463046FFF720FF2B7D1BB1A36843F094
:102088000803A3606B7D1BB1636843F4004363607E
:10209800AB7D1BB1636843F480336360EB7D1BB198
:1020A800636843F4003363602B7E002B35D0B4F1B2
:1020B800B84F18D0274B9C4215D003F580539C424B
:1020C80011D003F580539C420DD003F580539C42F8
:1020D80009D0214B9C4206D0204B9C4203D003F5EB
:1020E80080539C4231D173681A68936843F48043E3
:1020F800936023686A7E23F0787343EA425323602F
:102108002368AA7E23F4F81343EA02432360EB7E94
:102118001BB1A36843F40043A3602B7F1BB1236862
:1021280043F000532360236843F001032360E3690D
:102138009A02FCD5E3695B02FCD530467B6A984776
:10214800002061E76FF057005EE76FF015005BE76E
:10215800DC54000000E000400030004400800140F2
:10216800F8B5436891F805E01C68036902460879E8
:102178005D688B7901280E461CD1BEF1020F6DD91E
:10218800022B1F464FF4C0614FF4005C7ED0042B35
:1021980077D020B1C31E012B75D94FF48050BCF500
:1021A800805F7DD0BCF5405F7CD0BCF1000F1CD1B6
:1021B80001231BE002280AD1BEF1020F5AD9022BD3
:1021C8001F464FF480610BD04FF4005CDFE7BEF18F
:1021D800020F52D9022B1F4651D100285CD0002192
:1021E800C31E012B4FD900200227032373454AD170
:1021F80002F0CDFCB84246D1F379EBB1012B53D1B3
:10220800B4F1B84F18D02A4B9C4215D003F580532F
:102218009C4211D003F580539C420DD003F58053A6
:102228009C4209D0234B9C4206D0234B9C4203D0AE
:1022380003F580539C4226D1236823F001032360D1
:1022480031461046FFF738FE236843F00103236048
:1022580096E8030085E803000020F8BD4FF4C0614C
:10226800164F022B37F81EC01F4690D170B94FF099
:10227800805094E74FF48061F2E70021F0E70021F5
:10228800A2E7002889D06FF08500E6E7C31E012B7E
:10229800F9D90227002082E701464FF08050A4E7D1
:1022A8000023A3E70223A1E7032BA9D0EBE700BF94
:1022B80000E000400030004400800140345E00002F
:1022C80010B54FF0E0230F499C691A6908689B69AB
:1022D8000D4902F4803234B993B903464AB90A6801
:1022E8001044C01A10BD002B08BF03460AB9A34208
:1022F800F5D90A6802440A604FF0E0221269EEE755
:102308000446F3E7D0030010CC0300100A4B102258
:1023180083F82320094B45F2A4121A60084B0020C9
:1023280018604FF0E02345F2A3125A6198611A69C8
:1023380042F007021A61704700ED00E0D003001078
:10234800CC030010684620F007018D4619B5FFF749
:10235800B7FF114B1149D3E900420868001942F14F
:102368000002C3E900020E4A00230B60D2E90041D3
:1023780045F2A413001BB0FBF3F043431B1941F1D2
:102388000001C2E9003101F0A1FCFEF759FCBDE8EB
:1023980019408546704700BFA0000010CC0300100C
:1023A800980000102DE9F041DFF8DC8099B1421C5B
:1023B8000BD14FF0E022136923F0010313614FF0B2
:1023C8007F43C8F80030BDE8F081D8F800600128E4
:1023D80007DC00270BE0431CD8F80060F7D140F277
:1023E800213040F222339842A8BF1846471EEFF327
:1023F8001185102383F31288BFF36F8FFFF760FFF7
:10240800224C4FF0E0239969D4E90023801843F166
:102418000003C4E900031E4B00221A601D4B1A6812
:10242800831A2ED445F2A41C0CFB073303F5A343EF
:102438002333B3FBFCF7131A0CFB073340F21A5291
:10244800934238BF1346144A934228BF13464FF0AD
:10245800E022C8F80030013B906953610023936182
:102468008142A1EB0003D4E9001238BF9B195B1825
:1024780042F10002C4E9003285F31188BFF36F8F7F
:10248800A1E740F21A53E2E7D0030010A0000010C1
:10249800CC030010980000102472FF0038B5EFF349
:1024A8001185102383F31288BFF36F8F084B1C68C4
:1024B800084B1B68E41AFFF703FF85F31188BFF385
:1024C8006F8F45F2A4132044B0FBF3F038BD00BF72
:1024D800A0000010980000102DE9F3414FF0A04231
:1024E8000546936A13F0030358D0012B60D00026E9
:1024F8000023C5E90033AB604FF0A043D3F89870D0
:10250800D3F89820D3F8A04014F4803418BFD3F837
:10251800A040C2F30808D3F89420C7F3054718BFB2
:10252800C4F3CC04D00607F1010708F101080CD563
:10253800D3F89C3003F07F030133009342462346CF
:102548003946304602F0E5FC28604FF0A043D3F846
:10255800942091060CD5D3F89C30C3F3062301339D
:102568000093424623463946304602F0D2FC686062
:102578004FF0A043D3F8942052060CD5D3F89C30E2
:10258800C3F3064301330093424623463946304697
:1025980002F0BFFCA86002B0BDE8F08102F084FC44
:1025A8000028A4D09369054E03F00303DE409FE79B
:1025B80002F073FC00289AD0014E99E70090D003EE
:1025C80000366E012DE9F3414FF0A0420546D2F8DE
:1025D800203803F00303012B64D0022B68D0002BB2
:1025E80056D000260023C5E90033AB604FF0A04366
:1025F800D3F88478D3F88428D3F88C4814F480343A
:1026080018BFD3F88C48C2F30808D3F88028C7F35A
:10261800054718BFC4F3CC04D00607F1010708F139
:1026280001080CD5D3F8883803F07F0301330093F1
:10263800424623463946304602F06BFC28604FF08C
:10264800A043D3F8802891060CD5D3F88838C3F373
:10265800062301330093424623463946304602F0AA
:1026680058FC68604FF0A043D3F8802852060CD578
:10267800D3F88838C3F30643013300934246234610
:102688003946304602F045FCA86002B0BDE8F0814A
:1026980002F00AFC0028A4D09369084E03F0030353
:1026A800DE409FE702F0F9FB00289AD0044E99E734
:1026B80002F001FC002894D0024E93E70090D0036A
:1026C80000366E0100093D002DE9F3414FF0A042AC
:1026D8000546D2F8243803F00303032B68D0002BF7
:1026E80060D102F0E1FB002856D100260023C5E99D
:1026F8000033AB604FF0A043D3F89878D3F898280C
:10270800D3F8A04814F4803418BFD3F8A048C2F313
:102718000808D3F89428C7F3054718BFC4F3CC04B6
:10272800D00607F1010708F101080CD5D3F89C3849
:1027380003F07F030133009342462346394630466F
:1027480002F0E7FB28604FF0A043D3F894289106E5
:102758000CD5D3F89C38C3F30623013300934246C3
:1027680023463946304602F0D4FB68604FF0A04358
:10277800D3F8942852060CD5D3F89C38C3F30643F3
:1027880001330093424623463946304602F0C1FBE6
:10279800A86002B0BDE8F0819369064E03F0030318
:1027A800DE40A3E702F079FB00289ED0024E9DE7A9
:1027B800024E9BE70090D00300366E010080BB00FC
:1027C8001FB54FF0A043D3F80C3903F00303022BD5
:1027D80012D0032B17D0012B04D002F05EFBA8B156
:1027E8000E4806E002F087FB80B101A8FFF7EAFE79
:1027F800029805B05DF804FB02F084FB30B101A833
:10280800FFF762FFF4E702F07DFB08B90020F0E76C
:1028180001A8FFF759FF0398EBE700BF00366E01E8
:102828001FB54FF0A042D2F8143903F00303012B6F
:102838000ED0022B15D013B902F064FB18B9002092
:1028480005B05DF804FB01A8FFF73EFF0198F7E724
:1028580002F051FB0028F2D001A8FFF7B3FE02985E
:10286800EEE702F021FB0028E9D09369024803F063
:102878000303D840E4E700BF0090D0031FB54FF032
:10288800A043D3F81C3903F00303012B0CD0022B0F
:1028980013D01BB1002005B05DF804FB02F0FDFA6F
:1028A8000028F7D00848F6E702F02CFB0028F1D002
:1028B80001A8FFF709FF0398EDE702F0EEFA0028F8
:1028C800E8D00248E7E700BF00366E01001BB700FA
:1028D8001FB54FF0A043D3F81C39DB0609D402F02A
:1028E80011FB18B101A8FFF7EFFE039805B05DF8DA
:1028F80004FB0148FAE700BF006CDC021FB502F0D8
:10290800EFFA1C4B98420DD8043B984210D9A0F519
:1029180040206FF44073184402280DD8DFE800F017
:10292800121B2200A0F10660A0F54073032BF0D91A
:10293800002005B05DF804FB02F0BDFA0028F7D0CE
:102948000D48F6E702F0DEFA0028F1D001A8FFF7FB
:10295800BBFE0398EDE702F0B5FA003818BF012076
:10296800C003E6E702F0B5FA0028E1D04FF4FA40D8
:10297800DFE700BF03030C0000093D0008B54FF076
:10298800A042D2F8D03003F00303012B0ED0022B63
:1029980012D00BB1002008BD02F086FA0028F9D049
:1029A8009369084803F00303D840F4E702F083FA78
:1029B8000028EFD00448EEE702F06FFA0028E9D0CB
:1029C8000248E8E70090D00300093D0000366E0198
:1029D8001FB502F085FA2C4B984227D8053B984240
:1029E8000AD8A3F5FF23A3F2FB73984216D8053B38
:1029F800984217D9254B1EE0A0F101606FF4E063FF
:102A0800184403281ED8DFE800F0263D2E34052B95
:102A180008D8DFE803F017203728072E1C4B03449B
:102A2800052BF4D9002005B05DF804FB194B0344CD
:102A3800042BF7D8184B0344032B03D8DFE803F023
:102A48000B22131902F05EFA0028EBD001A8FFF759
:102A58003BFE0298E7E702F04EFA0028E2D001A810
:102A6800FFF7B0FDF5E7032005B05DF804EBFFF7CD
:102A780085BF02F040FA0028D4D001A8FFF7A2FDD4
:102A88000398D0E70548CEE704071008FFF8F7F7E2
:102A980000F9F3F700F9EBF7FFF8EBF70080BB005C
:102AA80008B54FF0A042D2F8D43013F0030303D096
:102AB800012B0BD0002008BD02F0F6F90028F9D050
:102AC8009369054803F00303D840F4E702F0E5F9F9
:102AD8000028EFD00148EEE70090D00300366E01E1
:102AE8001FB5184A104602F0FBF9801A042807D8C7
:102AF800DFE800F0030F26171D0002F003FA18B9EB
:102B0800002005B05DF804FB01A8FFF7DDFD029881
:102B1800F7E702F0F0F90028F2D001A8FFF752FD1C
:102B2800F5E7032005B05DF804EBFFF727BF02F0D7
:102B3800E2F90028E4D001A8FFF744FD0398E0E794
:102B48000148DEE7000708080080BB0008B54FF021
:102B5800A042D2F8403103F44033B3F5003F0CD023
:102B6800B3F5403F0ED0B3F5803F09D102F0AAF982
:102B7800003818BF0120C00308BD02F0AAF948B9FF
:102B88000020F9E7536C054803F03F030133B0FB1D
:102B9800F3F0F1E74FF4FA40EEE700BF00366E01BC
:102BA8001FB54FF0A042536A03F00703012B0FD063
:102BB800022B08D073B99369074803F00303D84080
:102BC80005B05DF804FB01A8FFF786FC0198F7E75C
:102BD8000248F5E70020F3E70090D00300366E01C5
:102BE8001FB54FF0A042936C03F00303022B10D0E3
:102BF800032B09D0012B0ED09369084803F0030377
:102C0800D84005B05DF804FB01A8FFF7DBFC01988C
:102C1800F7E70348F5E70348F3E700BF0090D00360
:102C280000093D0000366E0110B50446FFF7D8FFD5
:102C38004FF0A041D1F83038D1F8341803F00F0321
:102C480020FA03F2204602F04BF9114B984201F0AA
:102C580007010FD00CD8A3F5802398420AD001337E
:102C6800984213D103290BD004290BD0104610BD6C
:102C7800084BF5E7032905D0042905D00229F5D129
:102C88005208F3E79208F1E7D208EFE70022EDE7F0
:102C980000016C0701016C071FB502F021F93A4BDE
:102CA80098421ED8053B984207D8384B0344052B59
:102CB8000ED9002005B05DF804FBA0F107606FF4A1
:102CC800E063184403284ED8DFE800F0564739403F
:102CD8002F4B0344042B46D8DFE803F01F28313874
:102CE8003F002C4B0344052BE3D82B4B0344042B08
:102CF80004D8DFE803F0121B242B3200FFF770FF23
:102D08004FF0A043D3F83028D3F8343802F00F023C
:102D1800D04003F00703D840CCE702F0F3F80028CE
:102D2800C7D001A8FFF7D0FC0198C3E702F0E3F889
:102D38000028BED001A8FFF745FC0298BAE702F0C8
:102D4800C1F8003818BF0120C003B3E702F0C1F88A
:102D58000028AED04FF4FA40ACE7032005B05DF888
:102D680004EBFFF70BBEFFF73BFF4FF0A043D3F890
:102D78003028D3F83C38C9E702F0C4F8002898D0C6
:102D880001A8FFF7A1FCD8E70407700800F993F73A
:102D9800FFF893F700F98BF7FFF88BF71FB502F0F0
:102DA8009FF8264B984212D8043B984213D9244BDB
:102DB8000344022B13D8DFE803F019222B00214B20
:102DC8000344022B30D8DFE803F0111A23001E4B0E
:102DD8000344032BF3D9002005B05DF804FBFFF78B
:102DE800DFFE05B05DF804EB02F04AB902F083F8A3
:102DF8000028F0D001A8FFF7E5FB0398ECE702F004
:102E080081F80028E7D001A8FFF75EFC0198E3E706
:102E180002F04AF80028DED04FF0A0430B489B6927
:102E280003F00303D840D7E7FFF7DAFE4FF0A043DB
:102E3800D3F8303803F00F03F4E700BF0307340872
:102E4800FFF8CBF7FFF8C7F700F9C7F70090D003F2
:102E58001FB502F045F8344B98421ED8043B9842FF
:102E680007D8A0F5E063032B0ED9002005B05DF864
:102E780004FB00F178406FF4E0621044022818D88F
:102E8800DFE800F0252E3A006FF4E06318440228CA
:102E980038D8DFE800F03F253100244B0344032BEA
:102EA800E3D8234B0344022B03D8DFE803F01019BF
:102EB8002500FFF795FE4FF0A043D3F83028D3F84C
:102EC800343802F00F02D04003F0070312E002F09A
:102ED80019F80028C9D001A8FFF7F6FB0398C5E741
:102EE80001F0E2FF0028C0D04FF0A04311489B69D1
:102EF80003F00303D840B9E701F0DDFF0028B4D0A0
:102F08000D48B3E7FFF74CFE02F0BAF84FF0A043C4
:102F18001B6CD9E701F0EFFF0028A6D001A8FFF746
:102F280051FB0298A2E700BF0307000800F9FBF76E
:102F3800FFF8FBF70090D00300093D001FB501F032
:102F4800CFFF494B984218D8053B984209D8A0F5BD
:102F58008020A0F5E063052B05D9002005B05DF8B9
:102F680004FB424B10E06FF4E0631844042870D867
:102F7800DFE800F04F57636929003D4B98420AD8B3
:102F8800053B9842E9D93B4B0344032B12D8DFE8B1
:102F980003F01A682329A0F10260A0F5E063042B6E
:102FA800DBD86FF4E0621044032824D8DFE800F08F
:102FB8003139454B01F0A6FF0028CED001A8FFF714
:102FC80083FB0198CAE701F096FF0028C5D001A845
:102FD800FFF7F8FA0298C1E7032005B05DF804EBA3
:102FE800FFF7CCBC01F087FF0028B6D001A8FFF797
:102FF800E9FA0398B2E7FFF7F3FD4FF0A043D3F8DF
:103008003028D3F8383802F00F02D04003F0070315
:1030180011E001F077FF00289FD001A8FFF754FBCB
:10302800D8E701F041FF002897D04FF0A04312489D
:103038009B6903F00303D84090E701F03CFF0028A8
:103048008BD00E488AE701F028FF002885D00C486D
:1030580084E7FFF7A5FD02F013F84FF0A0431B6CBF
:10306800D4E708487AE700BF04071808FFF8E7F72D
:1030780004071C08FFF8E3F70090D00300093D009F
:1030880000366E010080BB001FB501F029FF464BDA
:10309800984226D8053B984211D8A0F50020A0F503
:1030A800E063052B13D9002005B05DF804FB3F4B06
:1030B8000344032B63D8DFE803F054424E5C3C4BD7
:1030C8000344032B67D8DFE803F04C3A46546FF407
:1030D800E063184404281FD8DFE800F028313D4396
:1030E8004B00344B984208D8053B9842DFD8324B06
:1030F8000344042BD7D8314BDAE7A0F10360A0F5DD
:10310800E063042BCFD86FF4E0621044032836D86C
:10311800DFE800F02715212FFFF742FD01F0B0FF8F
:103128004FF0A0431B6C03F0070312E001F0E3FE2D
:103138000028B8D001A8FFF745FA0298B4E701F0D3
:10314800B3FE0028AFD04FF0A0431D489B6903F0A1
:103158000303D840A8E701F0AEFE0028A3D0194821
:10316800A2E701F0CFFE00289DD001A8FFF7ACFA36
:10317800E3E701F092FE002895D0134894E7FFF7A3
:103188002FFD4FF0A043D3F83028D3F8343802F09D
:103198000F02D040C7E7FFF723FD4FF0A043D3F855
:1031A8003028D3F83838F2E704072408FFF8D3F7B3
:1031B800FFF8DBF704072C0800F9D7F7FFF8D7F773
:1031C8000090D00300093D0000366E0138B5EFF3DA
:1031D8001185102383F31288BFF36F8F064B9C6809
:1031E80001F0CBFF85F31188BFF36F8F2046BDE850
:1031F8003840FDF755BF00BFD403001038B50A4B5F
:1032080053F82040013053F82050A54200D838BD6B
:10321800606830B1037FDB0701D401F0B1FF0834E7
:10322800F3E723689847FAE71C5E000070B52A4B5D
:103238002A4C2B4D012286B003201A70FFF7DEFFBF
:1032480000F0BCFD0420FFF7D9FF2646AE4204F18A
:10325800300410D300F040FA204C224EAC4226D362
:1032680000F04EFAFDF7FCFB1F4A137B23F0010325
:10327800137306B070BD54F80C3C059354F8103C19
:10328800049354F8143C039354F8183C029354F8EC
:103298001C3C019354F8203C009354E90A2354E958
:1032A8000C0100F0CFF854F8303C5E65CDE7D4E966
:1032B8000A23B3F1FF3F08BFB2F1FF3F05D052EA3E
:1032C8000301206803D100F0D7FA3034C6E731464D
:1032D800183000F06BFCF8E7010800108C5B000068
:1032E8008C5B0000515200002801001008B503480B
:1032F800034A0021121A01F05AFF08BD9800001075
:103308000408001070B5002386B00122CDE904231B
:10331800134E144D01930F22CDE9023212491423A2
:1033280003FB005506EBC01604464FF4C07000FBC3
:1033380004110E4B00954FF4A072304600F082F84D
:10334800737B0B4AEE6023F0040373734FF404633A
:1033580004FB033313442C746B6006B070BD00BFCC
:10336800A8000010D403001080100010BF51000006
:1033780040080010BFB50020FFF740FF294B83F33A
:103388000888294C294F636943F400736361002559
:10339800F02384F82230E57725766576A57684F8DB
:1033A8002050636A43F4E0236362FDF749FEFDF7AA
:1033B8006FFF4FF0FF33A362E362FEF72FF8FDF7CC
:1033C8008BFF1B481B4C00F089F801F0C2FEFDF78B
:1033D800C7FB0120FFF712FF0220FFF70FFF00F0E5
:1033E800C3F9154B15495C61154B05930123CDE9CC
:1033F80003534FF480623B46CDE9015500952046C2
:1034080000F020F8627B064622F004022046627330
:1034180001F0EEFE2846FFF775FF3A463146204692
:10342800FDF718FF8010001000ED00E035320000B5
:10343800A801001028010010D40300100012001089
:10344800826300002DE9F043073285B022F00702BD
:103458000E461F461099017300F158037F32C0E9E8
:1034680016330446002322F03F020421836041738F
:103478003F2A0F98A073C4E90633E37306F14009A5
:10348800A2F1400805D883F31188BFF36F8F08466F
:1034980002DFB51829462046FDF7B2FB07300E9B20
:1034A80020F00700A066C4E9189802930D9B0193C9
:1034B8002D1A0C9B00932A463B4631462046FDF7C1
:1034C80097FE00236365044B9B6803B1DB6EE366DC
:1034D800284605B0BDE8F083D403001040F201137C
:1034E80083810023C0E91833C366014B9860704795
:1034F800D4030010094A93686FF00A0199670849D4
:1035080058674B6843F080534B60002383F311885E
:10351800BFF36F8F9368986F704700BFD403001094
:1035280000ED00E070B590F90D20437B002A36DBF2
:10353800D90634D11B4C63F07F032246437352F8FB
:10354800183FE169934207D1C0E900210860E061B2
:1035580011E09942F8D01B68002BF5D090F90E5075
:1035680093F90E60B542F4D0AE42F2DD5968C0E975
:10357800003108605860A569954200D005B9E56832
:10358800A3685A7BD20604D1DA897F2A01D9AA69AD
:1035980032B1AB4202D0284600F066FA656170BDD0
:1035A8006361FCE7D403001038B590F90D20437B24
:1035B800002A014604DA03F07F03437301F006FE94
:1035C8000D4D2A46AB6852F8184F944200D004B902
:1035D800EC688B4207D05A7BD20604D1DA897F2A5D
:1035E80001D9A2692AB1A34202D0204600F03CFAD0
:1035F80023466B6138BD00BFD403001070B590F945
:103608000D20437B002A014604DA03F07F0343734D
:1036180001F0DCFD4B7B1C4C63F07F0322464B73AF
:1036280052F8183FE069934207D1C1E900200160D0
:10363800E16111E09842F8D01B68002BF5D091F9B0
:103648000E5093F90E60B542F4D0AE42F2DD5868E0
:10365800C1E9003001605960A569A368954200D0AE
:1036680005B9E5688B4207D05A7BD20604D1DA89BE
:103678007F2A01D9AA692AB1AB4202D0284600F0B4
:10368800F3F92B46636170BDD403001049B9EFF319
:10369800058030B9054B5A699B689A4201D0FFF7FB
:1036A80029BF81F31188BFF36F8F7047D4030010CF
:1036B800034648B9EFF3058232B9064A5169926860
:1036C800914201D0FFF716BF83F31188BFF36F8FC4
:1036D800704700BFD4030010EFF31181102383F368
:1036E8001288BFF36F8F054B9A68D37B013BD37366
:1036F80081F31188BFF36F8F704700BFD4030010A8
:1037080070B5EFF31186102383F31288BFF36F8F20
:10371800144DAB68DA7B0132DA732A4652F8184F37
:10372800944200D004B9EC685A7BD20604D1DA89F5
:103738007F2A01D9A2692AB1A34202D0204600F00B
:1037480093F923466B6186F31188BFF36F8FEFF30C
:103758001180102383F31288BFF36F8FBDE8704088
:10376800FFF7A6BFD4030010024B03F11802C3E908
:1037780006227047D403001070B5EFF311861023AA
:1037880083F31288BFF36F8F1B4CA168E0690B6845
:10379800814214BF1A46002249680B605960A36829
:1037A800E1692AB9154AC3E900210B60E3610CE01D
:1037B80093F90E0092F90E50A84218D0854216DDF2
:1037C8005168C3E900210B605360A5690B4B9D420A
:1037D80000D005B9E568A3689D4202D0284600F0EC
:1037E80043F965613046BDE87040FFF783BE8A4201
:1037F800D8D01268D5E700BFD4030010EC0300103E
:10380800F8B550EA010306460C4603D1FFF7B4FFAA
:103818000020F8BDEFF31187102383F31288BFF35C
:103828006F8F124D124BA8681860FFF7BDFEA8688D
:10383800104923463246183000F0B8F9AA68537B7D
:1038480043F00403537304463846FFF753FEAB684E
:10385800D3E90A23B3F1004F08BF002AD8D101F0F9
:103868005EFD201A20EAE070D3E700BFD403001001
:10387800F40300105152000038B50446EFF31185E7
:10388800102383F31288BFF36F8F437B5B070FD539
:10389800183001F01CFD637B23F00403204663739A
:1038A800FFF740FE29460548BDE83840FFF7EEBE61
:1038B80085F31188BFF36F8F38BD00BF0208001071
:1038C800014B9868704700BFD40300102DE9F843F6
:1038D8000446077BEFF31185102383F31288BFF3A7
:1038E8006F8F437B190705D585F31188BFF36F8F59
:1038F800BDE8F883D90943F008025DD14273A36893
:1039080013B1204601F06AFC04F1180001F0DFFC55
:10391800A66D04F15808B04511D04FF0000976B1F2
:10392800304601F05BFC06F1180001F0D0FCC6F847
:1039380078903046FFF7F6FDA66DB045EFD1DFF879
:10394800C080D8F808309C423ED1EFF30589B9F120
:10395800000918BF4FF00109D8F81860294A9642A3
:1039680000D00EB9D8F80C60B34202D0304600F04F
:103978007BF82046C8F8146000F094FDB9F1000FF8
:1039880002D02148FFF7AAFDD8F808309C4231D16F
:10399800EFF3058373BB227BD20718D42846FFF7C1
:1039A800A9FDFB07A4D5002383F31188BFF36F8F0C
:1039B8000423184602DF9BE703F07F0343F0080364
:1039C800437301F003FC9AE74FF00009C4E785F35D
:1039D8001188BFF36F8F83F31188BFF36F8F0423B0
:1039E800184602DFEFF31180102383F31288BFF328
:1039F8006F8FD4E785F31188BFF36F8FD1E700BFCE
:103A0800D4030010EC030010A8010010044BC01AE6
:103A1800044BC0105843044B01221A54704700BF8E
:103A280028020010ABAAAAAA02080010C3897F2B9B
:103A380012D80A4B1B6863B1094B90F90E201B681A
:103A48009A4209DB437BDB0606D1064BC31A18BF33
:103A5800012303F0010070470023FAE74800001033
:103A6800F8030010A800001070B50E4B0E4C1E7C19
:103A780006EB460304EBC3040546204601F027FC89
:103A88000A4B002228469A55FFF7D0FF48B1084B49
:103A980008491A68013A2046D317BDE8704000F07B
:103AA80085B870BDD4030010280200100208001069
:103AB80048000010153A000038B5EFF311851023BF
:103AC80083F31288BFF36F8F104B114A9C681068FC
:103AD800A04206D1FFF7C8FF85F31188BFF36F8FA7
:103AE80038BD00211B7C11600A4AD35C002BF3D03F
:103AF8002046FFF79BFF0028EED0637BDB0602D150
:103B08002046FFF77BFD2046E4E700BFD403001002
:103B1800F4030010020800100748084A084908B5CD
:103B2800121A01F046FB0748074A0849BDE8084051
:103B3800121A01F03EBB00BF0000001094000010F4
:103B4800C06300000000001000000010C063000007
:103B5800024B1868984208BF002070474C000010BC
:103B6800034B1B680BB9FEF799BC0020704700BFD8
:103B7800FC03001030B570B10B4B5B6898420AD05B
:103B8800036843B1D3E90421D0E90445121941EB94
:103B98000501C3E90421D0E9003213605A6000230B
:103BA800C0E9003330BD00BF4C000010B3F1FF3F47
:103BB80008BFB2F1FF3F2DE9F84F04469946154674
:103BC8001F467AD08160EFF31188102383F312889F
:103BD800BFF36F8FB9F1000FDFF8E4A020DBFFF728
:103BE800BFFFDAE90027013549F100092D1849EB33
:103BF800E073C4E90453AD18064643EB07074FF0DA
:103C08000109FFF7A5FFDFF8BCE0DEF804A00346D2
:103C1800EBB9C4E900EACAF80040CEF8044028E04D
:103C2800DAE900126FF001035B1A4FF0FF3161EB24
:103C380002025B1B62EB0902012B72F10001BCBF9F
:103C480001230022C0E904324FF00009D9E7D3E983
:103C5800041CD4E904208A4270EB0C0B24DA891A7C
:103C68005A686CEB0000C3E90410C4E90032146020
:103C78005C60FFF76DFF84420ED1134B1B685BB984
:103C8800B9F1000F02D1FFF76BFF0646304601F08D
:103C980007FB0021FEF786FB88F31188BFF36F8FBF
:103CA80028463946BDE8F88F521A60EB0C009A4551
:103CB800C4E90420ADD01B68AAE700252F46EFE72A
:103CC800400200104C000010FC0300102DE9F047E2
:103CD800EFF31185102383F31288BFF36F8FDFF89A
:103CE800A490DFF8A480C9F80000FFF731FF002690
:103CF8000027D9F80030D8E900ECD91750B1D0E93D
:103D08000442A34271EB020A1CDAE41A62EB0102D4
:103D1800C0E9044213EB0E034FF000044CEB010121
:103D28002046C8E90031C9F8004001F0B9FA214637
:103D3800FEF738FB85F31188BFF36F8FBDE8F047B6
:103D4800FFF7BABE14EB0E024CEBE473C0E904674C
:103D5800C8E90023FFF70EFF85F31188BFF36F8FC3
:103D680083689847EFF31185102383F31288BFF314
:103D78006F8FD9F800301B1BC9F80030FFF7E8FE39
:103D8800B7E700BFFC0300104002001010B5EFF3C6
:103D98001184102383F31288BFF36F8FFFF7E0FEBF
:103DA800054A0346D2E90001181841EBE37184F390
:103DB8001188BFF36F8F10BD40020010014800F05A
:103DC80054BB00BF876300000FB407B5064B04AAB5
:103DD800186852F8041B019200F008F803B05DF867
:103DE80004EB04B0704700BF545C00002DE9F04FAD
:103DF8008DB043680293837815469A07804640F150
:103E08000D8100240E78002E00F00A81252E0BD09B
:103E18004B1C03930134029B4146304698470028C7
:103E2800C0F2F6800399EDE74E788B1C252E03939C
:103E3800F0D00027B946BB46BBF11F0F38D8A6F112
:103E48002003102B0AD8DFE803F02A0909300909F2
:103E5800092109090928092D09091F00A6F13003BC
:103E6800092B33D92A2E37D11BF0400F55F8043BC4
:103E780040F08280002BA7BF4BF0200B9946C3F17E
:103E880000094BF0280B01E04BF0010B039B13F8E2
:103E9800016B0393002ECFD130E04BF0020B4BF0B7
:103EA800040BF3E74BF0080BF0E74BF0100BEDE7D2
:103EB800BBF17F0F19D8A6F13003092BD2D81BF01C
:103EC800400F03D00A2101FB0737DFE70A2101FB76
:103ED80009394BF0200BD9E72E2E06D11BF0400FE5
:103EE80040F09E804BF0400BD0E76C2E31D02BD8A1
:103EF800682E36D06A2E3CD04C2E3AD0002F46F091
:103F08002003B8BF2BF04002A3F16501BCBF1FFA24
:103F180082FB0027022901D9612B2FD1073525F013
:103F28000705DFF8ACA2083507271BF0080F66D095
:103F38000AEB070B56465E4563D1A4EB0A0A06EB6B
:103F48000A02A9EB07096FE1742E9FD07A2E9DD043
:103F5800D4E71BF0800F18BF4BF4007B4BF0800BAD
:103F680094E71BF4807F18BF4BF4007B4BF4807BF5
:103F78008CE74BF4207B89E71F4687E7A6F16301AE
:103F8800122900F2F080DFE811F013004F00EE0074
:103F9800EE00EE00EE004F00EE00EE00EE00EE0048
:103FA800EE00FE00E900EE00EE001B00EE00AF00A0
:103FB80055F8043B8DF8183001270DF1180AB4E7BD
:103FC80055F804AB834BBAF1000F08BF9A461BF0B3
:103FD800400F14BF39464FF0FF31504601F0B9F990
:103FE8000746A2E7029B41462020984700280FDB9E
:103FF800013EB742F6D34C44A41BB14698E74E465F
:10400800F7E716F8010B029B41469847002892DA19
:1040180098F8023043F0040388F802304FF0FF3478
:1040280020460DB0BDE8F08F1BF0800F34D01BF494
:10403800007F2CD0073525F00705AA4669685AF88D
:10404800080B2BF010050029ADB237DA404261EBBE
:10405800410145F480650DF1180B0A235A4601F019
:1040680084F9A0EB0B0301936B0662D5019B25F045
:1040780001019F4289B240F3A180002E00F099808F
:1040880015F0100240F09C80BB460D4623E0AA467E
:104098005AF8040BC117D4E7AA461BF4807F5AF8D4
:1040A800041B01D10846F5E71BF4007F15BF48B291
:1040B80008B241F3C01141F3C031C2E750EA01032D
:1040C800C9D11BF0400FC6D0002FC4D12BF011026C
:1040D80095B2BB46019740F2064115EA01021CBFA2
:1040E8000BF1010B00222CE02BF010021FFA82FBCF
:1040F8000A231BF0800C49D01BF400711DBF073543
:1041080025F00705AA46AA461ABF5AF8080B696897
:104118005AF8040B50EA010545D12BF016051BF09F
:10412800400FADB242D0002F40D12BF0170295B20C
:10413800019715F0100248D0019B002E42D103F1DF
:10414800010B29075AD4EB0706D5D9456FDD01992C
:10415800A9EB0B035F18CB465B4649E04BF0100B0D
:1041680010237826C5E7782B04D1C6F1780343F0ED
:104178001003BEE7029B4146252098470028FFF61A
:1041880047AF023447E608230026B2E7AA461BF4E5
:1041980080715AF8040BBDD01BF400711ABFC0B26D
:1041A800614680B2B6E72BF0060295B20DF1180B06
:1041B80054E725F01105ADB2BB468CE70D46B8E7CC
:1041C8003B460D4603F1020BBBE7DDF804B082E77E
:1041D800B5630000AE630000CDE904324146029B9E
:1041E800202098470028FFF613AF049B059A013357
:1041F8009945F1DCA4EB0B01CC189B460AB3029B52
:104208004146302098470028FFF602AF8EB90134A6
:104218002744019B391B994224DC1D465DBB019A4A
:10422800A9EB0B09224455461446914435E0019FF9
:1042380092E7023441463046029B98470028E7DA65
:10424800E6E640F206410D42E2D015F0020F14BF37
:104258002B20202015F4806F04F10104414618BF7B
:104268002D20E9E7029B414630209847002804F1B9
:104278000104CEDACCE606AB013D4146585D029B0F
:1042880098470028CADAC3E6029B4146202098478F
:10429800002804F10104FFF6BBAEA9EB0403002BD0
:1042A800F2DCBFE57047836800EBC101B3F5004F4E
:1042B8002CBF51F8220031F81200704700EBC10101
:1042C8008068B0F5004F2CBF41F8223021F8123039
:1042D800704708B50122FFF7E6FFD04008BD8368A4
:1042E800B3F5004F00EBC10108D34B681AB143F096
:1042F80001034B60704723F00103FAE74B881AB1BA
:1043080043F001034B80704723F00103FAE75300A1
:104318000122FFF7D3BFB0F5004F34BF04230823B1
:10432800481C0833A0EBD300B0FA80F0C0F11F009E
:1043380070472DE9F0410D4686680446FFF7C9FF2E
:10434800B6F5004F014601D3012832D03046FFF7B9
:10435800E2FF04EB80010E6996B9E368012282400E
:104368001343E36002220D612B4629462046FFF7DE
:10437800A5FF032229462046BDE8F041FFF79EBF6E
:10438800022231462046FFF78EFF2946034607469C
:104398002046FFF793FF0322334629462046FFF7BE
:1043A8008DFF39462B462046FFF788FF022231460B
:1043B800E1E7BDE8F081B2F5802F2CBF0823042384
:1043C800D21A2DE9F0418C18CD1D25F0070524F0EF
:1043D8000704641B0026E40805602146AC60EE6013
:1043E8002046FFF798FF421D9200013002F10707AF
:1043F8004FEAD707A2F110023146B8BF324605F19D
:10440800100000F09EFF3A4631462846FFF77FFF2E
:104418003346324631462846FFF750FFA4EB0708DB
:10442800284631460122FFF75AFF42463946FFF730
:104438006EFF3B46324639462846FFF73FFF214686
:104448002846FFF764FF4346324621462846FFF7D1
:1044580035FF214628460122FFF741FF3946BDE8CE
:10446800F041FFF766BF002070470FB407B504A9F5
:1044780051F8040B0191FCF737FB03B05DF804EB2E
:1044880004B07047704701460068FCF785BB08B563
:10449800FCF7B2FBBDE80840FCF7D2BB00210120C5
:1044A800FCF77ABB6FF08500704761B662B680F39F
:1044B8001188BFF36F8F704772B6002383F311889A
:1044C800BFF36F8FBFF34F8F30BF62B6BFF36F8FED
:1044D8007047202809D9B0F1004F08D80138B0FA40
:1044E80080F0C0F11F0040007047082070473E2050
:1044F800704708B5FDF746F8002008BD08B500204C
:104508000621FDF78FF8024601460620FCF72EFE2D
:10451800002207210120FDF785F811460720FCF746
:1045280025FE002208210220FDF77CF8114608200C
:10453800FCF71CFE002209210320FDF773F8114641
:104548000920FCF713FE00220A210420FDF76AF86F
:1045580011460A20FCF70AFE002217210520FDF764
:1045680061F811461720FCF701FE002240210620C1
:10457800FDF758F811464020FCF7F8FD00224121CC
:104588000720FDF74FF811464120FCF7EFFD002208
:1045980042210820FDF746F811464220FCF7E6FDC7
:1045A800002243210920FDF73DF811464320FCF77E
:1045B800DDFD002228210A20FDF734F811462820C5
:1045C800FCF7D4FD00222A210B20FDF72BF8114619
:1045D8002A20FCF7CBFD00224C210C20FDF722F805
:1045E80011464C20FCF7C2FD00224D210D20FDF79D
:1045F80019F811464D20FCF7B9FD002279210E204B
:10460800FDF710F811467920FCF7B0FD00227F2154
:104618000F20FDF707F811467F20FCF7A7FD0020C3
:1046280008BD01F01F0101208840704738B5C40457
:1046380004F4C01444EA90040D46FCF7F9FF04F0B2
:1046480003039B0003F1A04303F55043240C1A6EA7
:104658000F21A14022EA0102A5402A431A664FF021
:1046680098434FF400725A6038BD0B88C3F30B03AC
:10467800013B8CB00D2B00F28F80DFE803F0400780
:10468800148D8D4B56616C1F2A3577824FF0A042EE
:104698004B68C2F8803AD2F8802A13400093009BF6
:1046A80000200CB070474FF0A0424B68C2F8883A1F
:1046B800D2F8882A13400193019BF1E74FF0A042FA
:1046C8004B68C2F8903AD2F8902A13400293029BA2
:1046D800E6E74FF0A0424B68C2F88032D2F8802259
:1046E80013400393039BDBE74FF0A0424B68C2F8EB
:1046F8008832D2F8882213400493049BD0E74FF005
:10470800A0424B68C2F8983AD2F8982A1340059309
:10471800059BC5E74FF0A0424B68C2F8A03AD2F813
:10472800A02A13400693069BBAE74FF0A0424B68B5
:10473800C2F8A83AD2F8A82A13400793079BAFE714
:104748004FF0A0424B68C2F89032D2F89022134042
:104758000893089BA4E74FF0A0424B68C2F8983230
:10476800D2F8982213400993099B99E74FF0A04289
:104778004B68C2F8B03AD2F8B02A13400A930A9BA1
:104788008EE74FF0A0424B68C2F8B83AD2F8B82A80
:1047980013400B930B9B83E76FF0850081E70B8831
:1047A800C3F30B03013B0D2B51D8DFE803F02607B9
:1047B8000E50502C32383E141A20444A4FF0A04371
:1047C8004A68C3F8842A002070474FF0A0434A681B
:1047D800C3F88C2AF7E74FF0A0434A68C3F8942A35
:1047E800F1E74FF0A0434A68C3F88422EBE74FF0A3
:1047F800A0434A68C3F88C22E5E74FF0A0434A6813
:10480800C3F89C2ADFE74FF0A0434A68C3F8A42AFC
:10481800D9E74FF0A0434A68C3F8AC2AD3E74FF072
:10482800A0434A68C3F89422CDE74FF0A0434A68F2
:10483800C3F89C22C7E74FF0A0434A68C3F8B42ADC
:10484800C1E74FF0A0434A68C3F8BC2ABBE76FF042
:10485800850070470020704743685B681B690B60E0
:104868000020704743685B6800209961704743687F
:104878005B68090499610020704710B5036998685E
:10488800F8B1884219D1DC6808689860A14200D163
:10489800D860002008602AB19A680A60DA689960CE
:1048A80002B9D960002010E0814206D10868206072
:1048B800D8688142EDD1DC60EBE704460068002847
:1048C800F2D1002AE8D16FF0150010BD38B5436861
:1048D8005D680C46FDF714FA6B6963406B614FF035
:1048E80098434FF400721A60002038BD70B54368D1
:1048F8005E680D461446FDF703FA73695C402C4068
:104908005C404FF098434FF4007274611A600020C5
:1049180070BD2DE9F84345680124164688468C4049
:1049280002F030079946FDF7EBF96A68C6F3801381
:1049380022EA040203FA08F313436B60D5F808C0AF
:1049480004FA08F202EB4200C6F3C11151432CEA03
:10495800000C41EA0C01A960E968C6F341265643F8
:1049680021EA00010E43202F6FEA0003EE600FD109
:10497800B8F1070F19D802FA08F1286A01FA08F104
:10498800C1EB011420EA040001FB09F1014329628B
:1049980029683F0957430B401F434FF098434FF492
:1049A80000722F601A60BDE8F883240A6443696ABC
:1049B8006443C4EB041021EA000104FB09F941EA4D
:1049C80009016962E4E712F4003CF8B505460C46B3
:1049D80013461DD0960714D550075DD55022D90629
:1049E80011D542F4007203F4C061B1F5806F42D072
:1049F800B1F5C06F19D0B1F5007F18D142F080022F
:104A080015E01022EBE79F06EDD542F48062EAE755
:104A1800D60305D5D00605D4C2F340129202E2E7C8
:104A28003022E0E74FF40072DDE742F4C07213F47D
:104A380040372E6908D0306920FA04F1C9075FBFF2
:104A48000121A14001433161BCF1000F06D01803D8
:104A580014D5696801234968A3408B6168680023FD
:104A68002146FFF756FF27B9336923FA04F2D20724
:104A78000CD40020F8BD42F48072D8E75903EDD574
:104A88000121A1402846FFF7F2FEE7E70122A240F4
:104A980023EA02033361ECE76FF08500EAE770B5BB
:104AA8000B468968054611B15E680C6801B970BD8E
:104AB8008A682A4002D04B68304698471CB1236860
:104AC80021461C46F2E72346FAE7F8B51F46044696
:104AD80040680E461546FFF71CFF112F07D101212C
:104AE8002B0501FA06F104D563685B68996100201B
:104AF800F8BD2046FFF7BBFEF9E730B50368136041
:104B08000579046804EBC504A34202D36FF00100E1
:104B180030BD5C798C4201D00833F0E70020F7E71C
:104B28004368C1F34B101B6801F01F01C0580123F3
:104B38008B40034214BF01230023137000207047E9
:104B480010B54368C1F34B101A6801F01F0184586F
:104B580001238B4023438350002010BD10B54368C8
:104B6800C1F34B401A6801F01F01845801238B40A0
:104B780023438350002010BD38B504460D46FFF787
:104B8800DFFF29462046FFF7E9FF002038BDB0F5D2
:104B9800805F07D0B0F1805F09D1002914BF0120E0
:104BA80002207047002914BF032004207047002901
:104BB80014BF02200320704743681B68D869DA696C
:104BC800D107DA69C0F3C00048BF40F0020092077D
:104BD800DA6948BF40F004005107DA6948BF40F07D
:104BE8002000D20542BF4FF4807240F008001A62DC
:104BF800C10744BF08221A62820744BF01221A6211
:104C0800410744BF02221A62820644BF04221A6284
:104C1800704743681A68136843F04003136070478D
:104C280043681A68136823F04003136070474368A9
:104C38001A68136843F020031360704743681A68C2
:104C4800136823F020031360704743681B68D86912
:104C5800C0F340107047012070470369C3E902128E
:104C68007047026993680BB1D1681847704708B557
:104C7800002227201146FCF779FABDE808402720D2
:104C8800FCF766BA08B5002252201146FCF76EFA06
:104C9800BDE808405220FCF75BBA37B502694368A3
:104CA80010681D680C46D9688368DB687BB101AA67
:104CB800984700280BDB2B6823F400432B600199ED
:104CC8002CB101EB5401B1FBF4F189B2E96003B0F6
:104CD80030BD43681B68D869C0F3801070474368CB
:104CE8001B68D86910F080001CBF1868C0F38010DA
:104CF800704710B50269526812680A604268126803
:104D0800126802F4C062B2F5806F04460B4633D0D5
:104D1800A2F5C060424242411A7162681268526844
:104D280002F44052B2F5805F28D0B2F5405F27D038
:104D3800002A0CBF012203225A71626812681068A7
:104D4800116800F0102001F4C061FFF720FF98718E
:104D580062681268926802F44072A2F540714A4291
:104D68004A41DA7161680968896811F4804F18BF8F
:104D78000322DA71002010BD0222CDE70022DBE712
:104D88000222D9E738B543681B680C4618681968C9
:104D980000F0102001F4C061FFF7F9FE04281AD0D2
:104DA800D86910F0800015D0EFF31181102080F33E
:104DB8001288BFF36F8F0020151A002D06DDDD69FC
:104DC8002D0603D5255C9D620130F5E781F3118836
:104DD800BFF36F8F38BD6FF08500FBE710B54368F0
:104DE8001B681020DA691206FCD5EFF3118280F3F4
:104DF8001288BFF36F8FDC69240604D482F311880C
:104E0800BFF36F8FEEE7996282F31188BFF36F8F5C
:104E180010BD43681B68DA69910602D51A689206C4
:104E280007D4D86910F0400004D01868C0F3801087
:104E380070470120704738B543681B680C461868EE
:104E4800196800F0102001F4C061FFF7A0FE0428E3
:104E580010D000200821151A002D0DDDDD69AD06E2
:104E68000AD55D6A2554DD692D0700F10100F2D5E8
:104E78001962F0E76FF0850038BD43681B68DA698E
:104E8800100744BF08221A62DA69920643BF5B6AB8
:104E98000B7000204FF0FF3070474FF0A043D3F85D
:104EA8000808C0F3002070474FF0A043D3F8080863
:104EB80000F0010070474FF0A043D3F80808C0F392
:104EC800001070474FF0A043D3F84001C0F38000B2
:104ED80070474FF0A043D3F84401C0F34000704737
:104EE800C0F30B4303F1A043D3F8C03003EA102307
:104EF800DBB2184370474FF0A043D3F88008C0F3E3
:104F0800400070474FF0A043D3F89408C0F3400026
:104F18007047F8B50546184617460E46FBF76EFA71
:104F28004FF06451FBF7C2FA04463846FBF766FABD
:104F380001462046FBF7B2F904462846FBF75EFA1D
:104F480005463046FBF75AFA01462846FBF762FB4E
:104F580001462046FBF7AAFA04460698FBF74EFAE4
:104F680001462046FBF756FBFBF7F0FBF8BD1FB5E3
:104F78004FF0A043D3F8FC3813F0030305D0012BFE
:104F88000CD0002005B05DF804FBFFF7BBFF00283C
:104F9800F7D001A8FDF798FB0198F3E7FFF7ABFFFF
:104FA8000028EED001A8FDF70DFB0298EAE708B546
:104FB8004FF0A043D3F8183903F00303012B0BD0AB
:104FC800022B10D00BB1002008BDFFF77BFF003883
:104FD80018BF0120C003F7E7FFF77BFF0028F2D0D6
:104FE8004FF4FA40F0E7FFF766FF0028EBD048F2ED
:104FF8001200E9E71FB54FF0A043D3F82439DB07C7
:1050080009D5FFF77FFF18B101A8FDF75DFB0198EF
:1050180005B05DF804FB4FF0FF30F9E71FB54FF01E
:10502800A043D3F8283903F00303012B0ED0022B39
:1050380012D013B9FFF766FF18B9002005B05DF864
:1050480004FB01A8FDF740FB0398F7E7032005B030
:105058005DF804EBFDF792BCFFF74DFF0028ECD09C
:1050680001A8FDF7AFFA0298E8E71FB5FFF74AFF76
:1050780018B101A8FDF728FB029805B05DF804FBFC
:105088004FF0A0431B6B03F007030133B0FBF3F0B1
:1050980070471FB54FF0A043D3F8000900F0030094
:1050A800022818D003281FD0012808D0FDF778FD62
:1050B800FFF7E6FF05B05DF804EBFFF7E1BFFFF788
:1050C8001AFF18B9002005B05DF804FB01A8FDF728
:1050D80079FA0398F7E7FFF715FF0028F2D001A83F
:1050E800FDF7F2FA0198EEE705B05DF804EBFDF77D
:1050F80045BC1FB54FF0A043D3F8040900F00300E6
:10510800022818D003281FD0012808D0FDF748FD31
:10511800FFF7B6FF05B05DF804EBFFF7B1BFFFF787
:10512800EAFE18B9002005B05DF804FB01A8FDF7F8
:1051380049FA0398F7E7FFF7E5FE0028F2D001A83F
:10514800FDF7C2FA0198EEE705B05DF804EBFDF74C
:1051580015BC704740B1C368587810F001001EBFF5
:105168001878B0FA80F040097047EFF311831023E4
:1051780083F31288BFF36F8FFEE708B5FFF7F5FFDB
:1051880010B54369044633B90020E268537843F008
:105198000103537010BD98470028F5D00028B8BF08
:1051A8004042E368FF28A8BFFF201870EDE700F031
:1051B800C8B800F0B8B808B51024EFF3118384F329
:1051C8001288BFF36F8FFFF777F9F6E7D0E900325F
:1051D80013605A600023C0E90033704708B5FFF731
:1051E800F5FF437B23F0020343730023836008BD6C
:1051F80010B5EFF31184102383F31288BFF36F8F78
:10520800FEF790F984F31188BFF36F8F10BD10B5C6
:105218000146EFF31184102383F31288BFF36F8FD5
:10522800437B13F0280F0AD183680BB1FFF7D6FF31
:105238004B7B23F004034B730846FEF773F984F3A2
:105248001188BFF36F8F10BD01211838FFF7DFBF3A
:1052580038B504460D46FEF7D3FAB5F1FF3F08BF4F
:10526800B4F1FF3F0346204614D013F109004FEA7A
:10527800E37141F100010A2871F100030BD36FF0CB
:105288000A0383424FF004038B4106D30A2200230A
:10529800FBF77CFA38BD0020FCE76FF00040F9E727
:1052A80008B50246FEF754FC70B1D0E904319B1AE8
:1052B80061EBE272B3F1004F72F1000104DA002AE7
:1052C800ACBF1846002008BD6FF00040FBE738B5BA
:1052D8000246EFF31185102383F31288BFF36F8F13
:1052E8000368CBB1FEF734FC04461046FEF742FCD7
:1052F80000224FF000438442C0E9042306D1FEF7A0
:105308002FFCFFF7CDFF0021FDF74CF8002085F3B7
:105318001188BFF36F8F38BD6FF01500F7E708B538
:10532800FEF734FD08BD0A44914200F1FF3300D175
:10533800704710B511F8014B03F8014F9142F9D1AC
:1053480010BD02440346934200D1704703F8011B85
:10535800F9E710B5024601448A42134603D01C7887
:105368000132002CF8D1181A10BDF0B5C3F1370777
:105378000446FFB203F01F031046082BE6B233D0F1
:10538800102B3ED06508A40844EA817445EAC1752B
:105398002D194FEA910242EB5102290941EA0271A3
:1053A8006D1842EB1212290A41EA02616D1842EBAC
:1053B8001222290C41EA02416D1842EB1242AD1843
:1053C80042F10002EC0844EA4274D10804EB84027A
:1053D800A6EB4205EDB2092D0CD90134A5F10A0559
:1053E80041F10001EDB212E0E40844EA417406F02C
:1053F8000705C908303554EA010200F8015BBCD141
:10540800F0BD240944EA017406F00F050909092DC5
:1054180084BFED19EDB2EDE7014800687047000060
:045428004802001026
:08542C009CB3FF7F01000000AA
:1054340000000000DC540000550B000000000000D8
:1054440000000000FC540000000000007C56000036
:10545400000000009C550000000000001C550000E6
:10546400000000005C560000000000003C560000F4
:10547400000000001C56000000000000FC55000065
:1054840000000000DC55000000000000BC550000D6
:10549400000000007C550000000000005C55000086
:1054A400000000003C55000005450000000000001D
:1054B400311C00000000000000000000BC56000089
:1054C400000000009C5600001523000000000000AE
:0854D400B51500000000000006
:1054DC00AA62000000000000C05B00007600001013
:1054EC00000000005D48000000000000000000000B
:1054FC0051630000785D0000B05B00008E0000106E
:10550C00000000000000000000000000000000008F
:10551C008C6200000000000000000000740000100D
:10552C0000000000D1170000000000000000000087
:10553C00B7620000585C00008C5B00007800001023
:10554C00F00200103D1D00000000000000000000F3
:10555C00C56200006C5C00008C5B00007A000010DF
:10556C00040300103D1D00000000000000000000BE
:10557C00D3620000805C00008C5B00007C0000109B
:10558C00180300103D1D000000000000000000008A
:10559C00E1620000945C00008C5B00007E00001057
:1055AC002C0300103D1D0000000000000000000056
:1055BC00EF620000A85C00008C5B00008000001013
:1055CC00400300103D1D0000000000000000000022
:1055DC00FD620000BC5C00008C5B000082000010CF
:1055EC00540300103D1D00000000000000000000EE
:1055FC000B630000D05C00008C5B0000840000108A
:10560C00680300103D1D00000000000000000000B9
:10561C0019630000E45C00008C5B00008600001045
:10562C007C0300103D1D0000000000000000000085
:10563C0027630000F85C00008C5B00008800001001
:10564C00900300103D1D0000000000000000000051
:10565C00356300000C5D00008C5B00008A000010BC
:10566C00A40300103D1D000000000000000000001D
:10567C0043630000205D00008C5B00008C00001078
:10568C00B80300103D1D00000000000000000000E9
:10569C00626300007C5D0000DC5B00009000001089
:1056AC0014000010F91F00000000000000000000B2
:1056BC0072630000CC5D0000DC5B00009200001007
:1056CC002C000010F91F000000000000000000007A
:1056DC0000000000A544000000000000A5440000EC
:1056EC0000000000A544000000000000A5440000DC
:1056FC0000000000A544000000000000A5440000CC
:10570C008A620000D915000088620000D9150000DB
:10571C0086620000D915000084620000D9150000D3
:10572C0082620000D915000000000000A5440000B2
:10573C0000000000A544000000000000A54400008B
:10574C0000000000A544000000000000A54400007B
:10575C0000000000A544000000000000A54400006B
:10576C0000000000A544000000000000A54400005B
:10577C0000000000A544000000000000A54400004B
:10578C0000000000A544000080620000D915000054
:10579C0000000000A544000000000000A54400002B
:1057AC0000000000A544000000000000A54400001B
:1057BC0000000000A544000000000000A54400000B
:1057CC0000000000A544000000000000A5440000FB
:1057DC0000000000A544000000000000A5440000EB
:1057EC0000000000A544000000000000A5440000DB
:1057FC0000000000A544000000000000A5440000CB
:10580C0000000000A5440000BC5600006B4C0000DA
:10581C0076620000D915000000000000A5440000CD
:10582C0074620000D915000000000000A5440000BF
:10583C0000000000A544000000000000A54400008A
:10584C0000000000A544000000000000A54400007A
:10585C0000000000A544000000000000A54400006A
:10586C0000000000A544000000000000A54400005A
:10587C0000000000A544000000000000A54400004A
:10588C0000000000A544000000000000A54400003A
:10589C0000000000A544000000000000A54400002A
:1058AC0000000000A544000000000000A54400001A
:1058BC0000000000A544000000000000A54400000A
:1058CC0000000000A544000000000000A5440000FA
:1058DC007E620000D91500007C620000D915000022
:1058EC007A620000D915000078620000D91500001A
:1058FC0000000000A544000000000000A5440000CA
:10590C0000000000A544000000000000A5440000B9
:10591C0000000000A544000000000000A5440000A9
:10592C0000000000A544000000000000A544000099
:10593C0072620000D915000070620000D9150000D9
:10594C0000000000A544000000000000A544000079
:10595C0000000000A544000000000000A544000069
:10596C009C5600006B4C000000000000A544000099
:10597C0000000000A544000000000000A544000049
:10598C0000000000A544000000000000A544000039
:10599C0000000000A544000000000000A544000029
:1059AC0000000000A544000000000000A544000019
:1059BC0000000000A544000000000000A544000009
:1059CC0000000000A544000000000000A5440000F9
:1059DC0000000000A544000000000000A5440000E9
:1059EC0000000000A544000000000000A5440000D9
:1059FC0000000000A544000000000000A5440000C9
:105A0C0000000000A544000000000000A5440000B8
:105A1C0000000000A544000000000000A5440000A8
:105A2C0000000000A544000000000000A544000098
:105A3C0000000000A544000000000000A544000088
:105A4C0000000000A544000000000000A544000078
:105A5C0000000000A544000000000000A544000068
:105A6C0000000000A544000000000000A544000058
:105A7C0000000000A544000000000000A544000048
:105A8C0000000000A544000000000000A544000038
:105A9C0000000000A54400006E620000D915000053
:105AAC0000000000A544000000000000A544000018
:105ABC0000000000A544000000000000A544000008
:105ACC0000000000A54400006C620000D915000025
:105ADC0000000000A544000000000000A5440000E8
:105AEC0000000000A544000000000000A5440000D8
:105AFC0000000000A544000000000000A5440000C8
:105B0C0000000000A544000000000000A5440000B7
:105B1C0000000000A544000000000000A5440000A7
:105B2C0000000000A544000000000000A544000097
:105B3C0000000000A544000000000000A544000087
:105B4C0000000000A544000000000000A544000077
:105B5C0000000000A544000000000000A544000067
:105B6C0000000000A544000000000000A544000057
:105B7C0000000000A544000000000000A544000047
:105B8C00CF49000061480000F54800006D48000056
:105B9C0077480000D5480000591C000083480000DD
:045BAC0000000000F5
:105BB000294B0000494B0000654B0000814B000061
:105BC00073460000A747000000000000B518000061
:0C5BD000000000000000000000000000C9
:105BDC00834E0000E54D0000C14B00006921000020
:105BEC00FB4C00008D4D00003F4E00001B4C000094
:105BFC00294C0000E74C0000374C0000454C0000DD
:105C0C00DB4C0000534C0000F91D00005D1E000031
:0C5C1C001B4E00005F4C0000634C0000B9
:105C2800000000100000000000000B060200000049
:105C38003C5C0000000000005D6200001E000206DF
:105C4800000000106562000024000B110400001021
:105C5800FFFF000000C000500A000000070000001D
:105C680000040000FFFF000000B000500900000021
:105C78000700000000020000FFFF000000A0005025
:105C8800080000000700000000010000FFFF0000FE
:105C9800009000500700000007000000800000008E
:105CA800FFFF000000800050060000000700000011
:105CB80040000000FFFF00000070005005000000D9
:105CC8000700000020000000FFFF000000600050F7
:105CD800040000000700000010000000FFFF0000A3
